:020000040800F2
:10000000D8040020B1110008ED0F0008EF0F000820
:10001000F10F0008F30F0008F50F000800000000C2
:10002000000000000000000000000000F90F0008C0
:10003000F70F000800000000FB0F0008FD0F00088C
:100040000510000807100008091000080B10000830
:100050000D1000080F100008111000081310000800
:100060001510000817100008191000081B100008D0
:100070001D1000081F1000082110000823100008A0
:100080002510000827100008291000082B10000870
:100090002D1000082F100008311000083310000840
:1000A0003510000837100008391000083B10000810
:1000B000370400083D1000083F10000841100008F8
:1000C00043100008451000084710000849100008B8
:1000D0004B100008210200084D1000084F100008C6
:1000E0005110000853100008551000085710000860
:1000F000591000085B1000085D1000085F10000830
:1001000061100008631000086510000867100008FF
:10011000691000086B1000086D1000086F100008CF
:10012000711000087310000875100008771000089F
:1001300010B5040042F2283000F098FB012000F0D6
:10014000AFFB012000F095FBDFF8DC060460DFF870
:10015000D80600680028FAD1002000F0A1FB7FF04B
:10016000010000F086FB002000F083FB10BDDFF8EB
:10017000B8060068002806D0DFF8AC060068401E0C
:10018000DFF8A41608607047DFF8A006008804288E
:1001900004DBDFF898060088052800D13FE0DFF88F
:1001A0008C060088072831D1DFF884064088DFF804
:1001B000801689884840DFF87816C9884840DFF8FB
:1001C000701609894840DFF868164989484010F0E0
:1001D0007F00DFF85C160988FF2920D1DFF8501670
:1001E000C98819291BD1DFF848168989C0B280B2A5
:1001F000814214D1DFF838060089DFF834164989C6
:1002000051EAC010DFF82C16088008E0DFF81C0661
:100210000088082803DBDFF81406002101807047FE
:1002200080B540F22551DFF8100600F0D8FBDFF86A
:1002300008060088DFF80416DFF8042612880A8012
:10024000DFF8F8150988FF2903D1DFF8E005002160
:100250000180DFF8D8050088DFF8D415DFF8DC2549
:10026000128821F81020DFF8C4050088401CDFF850
:10027000BC150880FFF788FF01BD30B585B0009040
:100280000020ADF804000020ADF806000020ADF815
:1002900008000020ADF80C000420ADF80A0001228F
:1002A00040F22551DFF8900500F06EFB00A9DFF861
:1002B000880500F00DFB0121DFF87C0500F056FBFE
:1002C000DFF874050488DFF8780505884021DFF839
:1002D000680500F080FB40F22551DFF85C0500F076
:1002E0007EFB05B030BD80B500F0F5FBDFF85405AE
:1002F00000F098FBDFF8500500F094FBDFF84C05A8
:1003000000F090FB1F20ADF8000010208DF80300D6
:1003100003208DF8020000A9DFF8280500F0E5FBB6
:100320004FF6C070ADF8000010208DF803000320D8
:100330008DF8020000A9DFF8100500F0D6FB4FF49D
:100340008060ADF8000048208DF8030000A9DFF8B8
:10035000F40400F0CAFB4FF40070ADF80000482030
:100360008DF8030000A9DFF8DC0400F0BEFB01BD3E
:1003700080B500F02DFC5FF4803000F058FC00F0F8
:1003800080FCDFF8CC140870DFF8C4040078012882
:1003900028D1102000F0BAFD022000F0A7FD0020B7
:1003A00000F0AAFC002000F0BBFC4FF4806000F0DD
:1003B000ADFC5FF4E0115FF4803000F07FFC4FF49F
:1003C000804000F0B8FC012000F083FC392000F0F0
:1003D0004CFD0028FAD0022000F07FFC00F087FCE2
:1003E0000828FBD1012144F20D0000F00EFD01218F
:1003F000012000F01AFD01BD80B500215FF0006012
:1004000000F0E2FD1C208DF8000000208DF80200B5
:1004100001208DF8030000A800F08AFD25208DF84A
:10042000000000208DF8010001208DF8020000A8D6
:1004300000F07EFD01BD7047DFF82004006850F039
:100440000100DFF818140860DFF81004006850F0AD
:100450000200DFF808140860DFF80004006850F0BC
:100460000400DFF8F8130860DFF8F003006850F0CC
:100470000800DFF8E8130860DFF8E003006850F0D8
:100480001000DFF8D8130860DFF8D403006850F4D8
:100490000060DFF8CC130860DFF8C403006850F494
:1004A0008050DFF8BC130860DFF8B403006850F434
:1004B0000050DFF8AC130860DFF8A403006850F4C4
:1004C0008040DFF89C130860DFF89403006850F464
:1004D0000040DFF88C130860DFF88403006850F0F8
:1004E0004000DFF87C130860DFF87403006850F008
:1004F0008000DFF86C130860DFF86403006850F4D4
:100500008070DFF85C130860DFF85403006850F473
:100510000070DFF84C130860DFF84403006850F403
:100520008060DFF83C1308607047DFF8280300683C
:1005300050F00100DFF81C130860DFF818030068B2
:1005400050F00200C3490860C248006850F004003F
:10055000C0490860BF48006850F00800BD49086005
:10056000BC48006850F01000BA490860BA480068FA
:1005700050F40060B8490860B748006850F48050F3
:10058000B5490860B448006850F40050B2490860AA
:10059000B148006850F48040AF490860AE48006838
:1005A00050F40040AC4908607047AB48006850F018
:1005B0004000A9490860A848006850F08000A6499A
:1005C0000860A548006850F48060A349086070473F
:1005D000A348006850F04000A1490860A0480068A6
:1005E00050F080009E4908609D48006850F480707B
:1005F0009B4908609A48006850F400709849086068
:100600009748006850F480609549086070479248A8
:10061000006850F08000904908608F48006850F4EE
:1006200080708D4908608E48006850F400708C49D5
:10063000086070478848006850F08000864908606C
:100640008748006850F480708549086082480068D7
:1006500050F4007080490860704780B57F4800689A
:1006600050F001007D4908607C48006850F00200AD
:100670007A4908607948006850F0040077490860BA
:100680007648006850F008007449086073480068B4
:1006900050F01000714908604FF49670FFF748FD64
:1006A0006C48006850F001006A49086069480068B9
:1006B00050F00200674908606648006850F0040086
:1006C000644908606348006850F0080061490860A8
:1006D0006048006850F010005E4908604FF4967062
:1006E000FFF726FD01BD5D48006850F001005B4941
:1006F00008605A48006850F002005849086057489E
:10070000006850F00400554908605448006850F0F3
:100710000800524908605148006850F010004F49E5
:1007200008604F48006850F400604D4908604C482C
:10073000006850F480504A4908604948006850F405
:100740000050474908604648006850F480404449DA
:1007500008604348006850F4004041490860704711
:1007600080B540F26B11411A3E4A118080B2B0F55B
:10077000FA7140F6C412914212D2FFF716FF3948BF
:100780000088042190FBF1F0FFF7D2FCFFF720FF77
:1007900034480088042190FBF1F0FFF7C9FC2BE0FE
:1007A00080B2A0F6B831B1F5FA7F05D2FFF755FF58
:1007B0002048002101801FE080B240F6AC51884201
:1007C00002DBFFF790FF17E080B2642804DAFFF73E
:1007D000ACFEFFF72FFF0FE080B2C82804DAFFF766
:1007E000A4FEFFF714FF07E080B2B0F5FA7F03DA4A
:1007F000FFF79BFEFFF7ECFE01BD80B5FFF7B8FDEC
:10080000FFF771FDFFF7F8FD1748FFF736FDFFF71B
:1008100013FEFFF78AFE0748002101800548008883
:10082000FFF79EFFFAE70000CC000020D200002076
:10083000040000200000002000380140D00000200B
:100840000438014000080140000C01400010014044
:10085000D600002010080140100C0140140801408F
:10086000140C0140D400002060E316001649086013
:100870007047012806D11348006850F00100114963
:1008800008600CE010F1020F06D10E480068400825
:1008900040000C49086002E00C48002101607047EC
:1008A000C0B2002806D00748006850F00200054991
:1008B000086005E00348006830F002000149086064
:1008C0007047000010E000E014E000E018E000E0F5
:1008D0002DE9F04385B004000D000020002600271C
:1008E0005FF000085FF00009A146218A08004CF67D
:1008F000FF710840E98808432082A0894EF6F31171
:100900000840A9882A8911436A8911430843A081B4
:10091000A08A4FF6FF410840A9890843A08200A899
:1009200000F013FA1048814501D1039E00E0029EB9
:10093000192000FB06F029688900B0FBF1F764205C
:10094000B7FBF0F000010109642202FB11785FEAB5
:10095000081132316422B1FBF2F111F00F010843AA
:10096000208105B0BDE8F08300380140C9B20029FC
:1009700004D0818951F40051818104E081894DF6D0
:10098000FF7211408181704770B400240025002659
:10099000002303000800C0B24009C0B2040089B2BD
:1009A00011F01F0005000120A8400600012C01D114
:1009B0000C3304E0022C01D1103300E01433D2B226
:1009C000002A03D018683043186002E01868B0436A
:1009D000186070BC704789B2C9430180704700221B
:1009E000002389B2090A0A00012191400B009BB241
:1009F000D9430180704710B450F8041B81B10268DC
:100A00001218001D50F8043BDC0744BFA9F1010493
:100A1000E31852F8044B43F8044B091FF9D1EBE7F4
:100A200010BC704780B56349884212D06249884241
:100A300018D0624988421ED06149884224D0614959
:100A400088422AD06049884230D06049884236D0F6
:100A500040E00121042000F0F8F90021042000F01A
:100A6000F4F937E00121082000F0EFF90021082017
:100A700000F0EBF92EE00121102000F0E6F9002152
:100A8000102000F0E2F925E00121202000F0DDF93E
:100A90000021202000F0D9F91CE00121402000F0C5
:100AA000D4F90021402000F0D0F913E0012180208A
:100AB00000F0CBF90021802000F0C7F90AE0012105
:100AC0004FF4807000F0C1F900214FF4807000F005
:100AD000BCF9FFE701BD80B50121012000F0B5F9A7
:100AE0000021012000F0B1F901BDF0B40022002680
:100AF000002400250023002791F803C01CF00F0CF0
:100B0000624691F803C05FEACC6C01D58B781A433A
:100B10000B781B0621D00368002406E0CD78482D11
:100B200002D10125A5400561641C082C14D20125C1
:100B3000A5400E882E40AE42F6D1A5000F2616FA2B
:100B400005F7BB4312FA05F52B43CD78282DE5D1E7
:100B50000125A5404561E7E703600B88B3F5807F79
:100B600026D34368002420E0012514F10806B5408F
:100B70000E882E40AE4217D1A5000F2616FA05F7B3
:100B8000BB4312FA05F52B43CD78282D04D101255E
:100B900014F10806B5404561CD78482D04D10125F2
:100BA00014F10806B5400561641C082CDCD34360D1
:100BB000F0BC704700080140000C014000100140EB
:100BC0000014014000180140001C014000200140B9
:100BD000DFF8DC02006850F00100DFF8D412086092
:100BE000DFF8D0020068DFF8D0120840DFF8C41246
:100BF0000860DFF8BC020068DFF8C0120840DFF8C8
:100C0000B0120860DFF8A802006830F48020DFF836
:100C1000A0120860DFF89C02006830F4FE00DFF8E4
:100C200094120860DFF89802002101607047DFF835
:100C30008012096831F48031DFF874221160DFF826
:100C40007012096831F48021DFF864221160B0F578
:100C5000803F03D0B0F5802F09D011E0DFF85002BB
:100C6000006850F48030DFF84812086008E0DFF8D0
:100C70004002006850F4A020DFF834120860FFE75B
:100C8000704780B50020009000200021312000F046
:100C9000ECF801000098401C0090C9B2002903D173
:100CA0000098B0F5A06FF1D1312000F0DEF80028F7
:100CB00001D0012000E00020C0B202BD00227D4B27
:100CC0001B681A0032F47C12084302437948026020
:100CD00070477C49C0B2086070470021754A1268AD
:100CE000110089088900014372480160704771480A
:100CF000006810F00C00704700216E4A1268110065
:100D000031F0F00101436B48016070470021694AEE
:100D10001268110031F4E0610143664801607047D8
:100D20000021644A1268110031F4605151EAC00197
:100D300060480160704700215E4A1268110031F47A
:100D4000404101435B480160704730B400220021FC
:100D500000230024574D2D6815F00C052A00002AA9
:100D600004D0042A05D0082A06D021E057490160A2
:100D700020E0564901601DE04E49096811F47011E8
:100D8000890C891C4B4A126812F48033002B03D162
:100D90004F4A514301600AE0464A1268920303D564
:100DA0004B4A5143016002E0484A5143016001E06F
:100DB000464901603F49096811F0F00212094549AE
:100DC000545C0168E14041603A49096811F4E0620D
:100DD000120A4049545C4168E14081603549096824
:100DE00011F46052D20A3B49545C4168E140C16051
:100DF0003049096811F44042920B3749545CC1688C
:100E0000B1FBF4F1016130BC7047C9B2002905D0D3
:100E10003249096808433149086005E02F490968EB
:100E200031EA00002D4908607047C9B2002905D099
:100E30002B49096808432A49086005E028490968E0
:100E400031EA0000264908607047C9B2002905D080
:100E50002449096808432349086005E021490968D5
:100E600031EA00001F490860704710B400220023D7
:100E70000021C0B24409E4B22200012A02D10C4987
:100E80000B6806E0022A02D10F490B6801E01649FF
:100E90000B68C0B210F01F0201209040034201D045
:100EA000012100E000210800C0B210BC7047000022
:100EB00000100240041002400000FFF8FFFFF6FEA1
:100EC00008100240600042422010024000127A00E6
:100ED00000093D00A0110008BC11000818100240D4
:100EE0001C1002400C10024024100240DFF83C109D
:100EF000096811F03801DFF834201160DFF82C1098
:100F000009680843DFF8241008607047DFF81C10F8
:100F1000096831F01001DFF814201160DFF80C10BF
:100F200009680843DFF80410086070470020024099
:100F300070B400210022002300240F25C678002E63
:100F400035D02749096811F4E061D1F5E061090A5B
:100F5000D1F10404CD404178A14082782A40114368
:100F60000901027812F00302D2B2D2009140027855
:100F70009210194B53F82220FF23047814F0030435
:100F8000E4B2E400A3409A4319400A43017889106F
:100F9000114B43F8212001784911124A01230078AE
:100FA00010F01F0013FA00F042F821000AE0017867
:100FB0004911084A0123007810F01F0013FA00F0CD
:100FC00042F8210070BC7047074A114008430349AA
:100FD0000860704780E100E000E400E008ED00E018
:100FE0000CED00E000E100E080FFFF1F7047FEE72E
:100FF000FEE7FEE7FEE770477047704780B5FFF7F2
:10100000B6F801BD7047704770477047704770472A
:101010007047704770477047704770477047704718
:101020007047704770477047704770477047704708
:1010300070477047704770477047704770477047F8
:1010400070477047704770477047704770477047E8
:1010500070477047704770477047704770477047D8
:1010600070477047704770477047704770477047C8
:10107000704770477047704730BF704720BF704758
:1010800040BF7047BFF36F8F7047BFF34F8F7047FC
:10109000BFF35F8F704701DF7047EFF31480704735
:1010A00080F31488BFF36F8F7047EFF309807047A8
:1010B00080F309887047EFF30880704780F3088851
:1010C000704762B6704772B67047EFF31080704792
:1010D00061B6704771B67047EFF31380704780F3C5
:1010E00011887047EFF31280704740BA704700BA1A
:1010F000704750F8041B61B150F8042BD30744BF6C
:10110000A9F101039A18002342F8043B091FFAD100
:10111000EFE7704710B5074979441831064C7C4415
:10112000163404E00A68081D511888470146A14298
:10113000F8D110BD0800000028000000B7FFFFFF35
:10114000D40000000400002000000000ABF8FFFF06
:10115000040000006C0000000000002000000000FF
:1011600000F009F8002801D0FFF7D4FF0020FFF7B6
:1011700044FB00F002F80120704700F001B80000C5
:101180000746384600F002F8FBE7000080B5C0468D
:10119000C046024A11001820ABBEFBE72600020041
:1011A000000000000102030401020304060708090D
:1011B000C046C046C046C046FFF7D2FF020406083C
:0411C0000F270000F5
:04000005080011B12D
:00000001FF
