:020000040800F2
:100000003004002081140008F5120008F7120008DF
:10001000F9120008FB120008FD12000800000000A1
:1000200000000000000000000000000001130008B4
:10003000FF12000800000000031300080513000869
:100040000D1300080F130008111300081313000804
:100050001513000817130008191300081B130008D4
:100060001D1300081F1300082113000823130008A4
:100070002513000827130008291300082B13000874
:100080002D1300082F130008311300083313000844
:100090003513000837130008391300083B13000814
:1000A0003D1300083F1300084113000843130008E4
:1000B000FF0500084513000847130008491300080E
:1000C0004B1300084D1300084F130008511300088C
:1000D000531300080102000873020008A10200087F
:1000E0005513000857130008591300085B13000844
:1000F0005D1300085F130008611300086313000814
:100100006513000867130008691300086B130008E3
:100110006D1300086F1300087113000873130008B3
:100120007513000877130008791300087B13000883
:10013000DFF8E0190988DFF8E029C0B210807047C5
:10014000DFF8D8190988DFF8D829C0B210807047C5
:10015000DFF8D0190988DFF8D029C0B210807047C5
:10016000DFF8C8190978FF2948D1DFF8C0194978A4
:10017000FF2943D1DFF8B4198978AA293ED1DFF8E5
:10018000AC19C978552939D1DFF8A0190979AA29FC
:1001900034D1DFF89819497955292FD1DFF88C1916
:1001A000897937292AD1DFF88419C979BA2925D163
:1001B000DFF87819097A142920D1DFF87019497A03
:1001C00000291BD1DFF86419897A002916D1DFF8DC
:1001D0005C19C97A002911D1DFF85019097B00296F
:1001E0000CD1DFF84819497B012907D1DFF83C1908
:1001F000897BC0B2814201D1012000E0002070471C
:1002000010B5002440F22551DFF8180900F035FD43
:10021000DFF814090088C0B20400DFF81009047484
:10022000002007E0DFF8041941184978DFF8FC28BE
:100230008154401C1028F5DB0120FFF791FF0028B6
:100240000DD0DFF8EC08006848F20101084206D141
:10025000DFF8E0080068401CDFF8D8180860DFF815
:10026000D0080068400403D52000C0B2FFF760FF4B
:1002700010BD10B5002440F22551DFF8A00800F0B1
:10028000FCFCDFF89C080088C0B20400DFF8A0087E
:100290000068400403D42000C0B2FFF749FF10BD3E
:1002A00010B5002440F22551DFF8680800F0E5FCA5
:1002B000DFF864080088C0B20400DFF87408006842
:1002C000400404D52000C0B2FFF742FF03E0200045
:1002D000C0B2FFF735FF10BD10B5040042F2283060
:1002E00000F0E8FC012000F0FFFC012000F0E5FC3C
:1002F000DFF844080460DFF8400800680028FAD1FD
:10030000002000F0F1FC7FF0010000F0D6FC00209E
:1003100000F0D3FC10BDDFF820080068002806D0EC
:10032000DFF814080068401EDFF80C1808607047FA
:1003300080B500F04AFDDFF8040800F0EDFCDFF8BE
:10034000000800F0E9FCDFF8FC0700F0E5FC44F2EF
:100350000730ADF8000010208DF8030003208DF861
:10036000020000A9DFF8D80700F039FD4FF4304053
:10037000ADF8000004208DF8030000A9DFF8C007E5
:1003800000F02DFD4FF48160ADF8000048208DF89D
:10039000030000A9DFF8A40700F021FD4FF401706D
:1003A000ADF8000018208DF8030000A9DFF88C07D5
:1003B00000F015FD4FF40060ADF8000048208DF806
:1003C000030000A9DFF8780700F009FD4FF4806012
:1003D000ADF8000018208DF8030000A9DFF86007D1
:1003E00000F0FDFC01BD30B585B000900020ADF8F7
:1003F00004000020ADF806000020ADF80800002041
:10040000ADF80C000C20ADF80A00012240F2255195
:10041000DFF8100700F006FC00A9DFF8080700F07D
:10042000A5FB0021DFF8FC0600F0EEFBDFF8F40688
:100430000488DFF8F40605884021DFF8E80600F0BC
:1004400018FC40F22551DFF8DC0600F016FC05B080
:1004500030BD30B585B000900020ADF8040000201C
:10046000ADF806000020ADF808000020ADF80C0043
:100470000C20ADF80A00012240F22551DFF89C065D
:1004800000F0D0FB00A9DFF8940600F06FFB00211C
:10049000DFF8880600F0B8FBDFF880060488DFF894
:1004A000800605884021DFF8740600F0E2FB40F288
:1004B0002551DFF8680600F0E0FB05B030BD30B52F
:1004C00085B000900020ADF804000020ADF80600D3
:1004D0000020ADF808000020ADF80C000C20ADF8AD
:1004E0000A00012240F22551DFF8280600F09AFBAD
:1004F00000A9DFF8200600F039FB0021DFF8140620
:1005000000F082FBDFF80C060488DFF80C06058893
:100510004021DFF8000600F0ACFB40F22551DFF887
:10052000F40500F0AAFB05B030BD80B500F0D4FCA6
:100530005FF4803000F0FFFC00F027FDDFF80816C4
:100540000870DFF804060078012828D1102000F098
:1005500061FE022000F04EFE002000F051FD002060
:1005600000F062FD4FF4806000F054FD5FF4E01194
:100570005FF4803000F026FD4FF4804000F05FFD16
:10058000012000F02AFD392000F0F3FD0028FAD008
:10059000022000F026FD00F02EFD0828FBD10121ED
:1005A00044F20D0000F0B5FD0121DFF8A00500F0D8
:1005B000C0FD01BD80B500215FF0006000F088FE45
:1005C00025208DF8000000208DF8010000208DF816
:1005D000020000A800F030FE26208DF80000012067
:1005E0008DF8030000A800F027FE27208DF80000FA
:1005F00001208DF8030000A800F01EFE01BD704729
:100600007047704780B5DFF84805006850F001007A
:10061000DFF83C150860FFF7F4FFDFF834050068E9
:1006200050F48070DFF828150860DFF828050068AE
:1006300050F00200DFF81C150860DFF818050068AC
:1006400050F00400DFF80C150860DFF8E4040068DF
:1006500050F00100DFF8D8140860DFF8FC04002136
:10066000016001BD38B5002400254FF40051DFF8CA
:10067000D00400F018FC002812D054F01004DFF869
:10068000B004006850F48070DFF8A4140860DFF84C
:10069000C404006850F40070DFF8B81408600FE07C
:1006A000DFF8AC04006850F40070DFF8A4140860B0
:1006B000DFF87C04006830F48070DFF874140860A0
:1006C0004FF48051DFF8780400F0EDFB002801D0F2
:1006D00054F001044FF40041DFF8640400F0E3FB40
:1006E000002802D054F0800403E0DFF870040021F9
:1006F0000160DFF83C040068400407D5DFF86004BF
:10070000006890F00400DFF858140860E4B220009C
:1007100000280ED0012842D0102800F0B180112806
:1007200000F0BB80802800F04D81812800F0168108
:1007300077E1DFF82404006802282FD3DFF8F00304
:10074000006800282AD1DFF8E8030068C00525D436
:10075000DFF8FC03006850F00100DFF8F4130860D4
:10076000FFF74FFFDFF8EC03006850F00200DFF8FE
:10077000E4130860DFF8DC03006850F00400DFF8E1
:10078000D4130860DFF8A803006850F00100DFF818
:10079000A0130860DFF8C0030021016041E1DFF829
:1007A000B8030068192865D3DFF8840300680028BF
:1007B00032D1DFF89C03006850F00100DFF890139D
:1007C0000860FFF71EFFDFF88803006850F48070B0
:1007D000DFF87C130860DFF87C03006850F002004B
:1007E000DFF870130860DFF86C03006850F0040055
:1007F000DFF860130860DFF83803006850F001008C
:10080000DFF82C130860DFF8500300210160DFF8E7
:100810004C030021016032E0DFF814030078C007C8
:100820002DD5DFF83003006850F00100DFF8241305
:100830000860FFF7E5FEDFF81C03006850F48070E5
:10084000DFF810130860C248006850F00200C04989
:100850000860BF48006850F00400BD490860B44813
:1008600000210160BC48002101604FF4FA60FFF7ED
:1008700033FD04E0B8480068401CB7490860D0E088
:10088000B348006850F00200B1490860A848006809
:1008900050F48070A6490860C3E0AD48006850F08D
:1008A0000200AB490860AC480068142850D3A04847
:1008B0000068002823D1A648006850F00100A44930
:1008C0000860FFF79EFEA248006850F48070A049BF
:1008D0000860A048006850F002009E4908609D48EA
:1008E000006850F004009B4908609148006850F08F
:1008F00001008F4908609848002101602DE08C4874
:100900000078C00729D59348006850F0010091494C
:1009100008609048006850F480708E490860FFF7C6
:100920006FFE8B48006850F00200894908608848D3
:10093000006850F00400864908607D48002101608D
:100940008548002101604FF4FA60FFF7C5FC04E020
:1009500081480068401C8049086062E07448006873
:1009600000282ED17B48006850F480407949086007
:100970007848006850F00400764908606420FFF76A
:10098000ABFC7348006850F0010071490860FFF744
:1009900038FE4FF4FA70FFF79FFC6D48006850F482
:1009A00080406B4908606248006840F4004050F0A5
:1009B00001005F4908606848002101606748002124
:1009C00001602EE065480068401C64490860634887
:1009D0000068322824D356480068400406D454489E
:1009E000006850F480405249086016E05048007892
:1009F000C00706D55748006850F004005549086004
:100A000005E05348006850F0040051490860484828
:100A1000006830F480404649086050480021016079
:100A2000FFE72000C0B232BD80B5FFF77EFDFFF7C3
:100A30007FFCFFF7BFFD5FF4E130FFF7D4FC5FF40C
:100A4000E130FFF706FD4748FFF739FD41480068F0
:100A500050F001003F4908603D48006850F0020036
:100A60003B4908603B48006850F480703949086091
:100A70003748006850F480403549086034480068C1
:100A800050F00400324908603748006850F4806034
:100A9000354908603448006850F4007032490860F5
:100AA00001BD80B5FFF7C0FF2A48006850F0040080
:100AB000284908606420FFF70FFCFFF7B5FF6420AA
:100AC000FFF70AFC2248006850F004002049086043
:100AD0001F48006850F400701D490860012111484A
:100AE00000F092F801210D4800F08EF8012109482C
:100AF00000F08AF8FFF7B6FD0E480068002804D021
:100B0000FFF780FD0B48002101606420FFF7E4FB44
:100B1000F0E7000000480040044800400044004066
:100B20000444004000380140043801400000002027
:100B300014000020240000202000002000080140B4
:100B4000000C0140001001402800002001000600B8
:100B5000140C0140100C0140180000201C00002063
:100B60000C0C014007B20100100801402DE9F043D0
:100B700085B004000D000020002600275FF000086B
:100B80005FF00009A146218A08004CF6FF71084079
:100B9000E98808432082A0894EF6F3110840A9880D
:100BA0002A8911436A8911430843A081A08A4FF61C
:100BB000FF410840A9890843A08200A800F049FA33
:100BC0001048814501D1039E00E0029E192000FBE0
:100BD00006F029688900B0FBF1F76420B7FBF0F05C
:100BE00000010109642202FB11785FEA0811323129
:100BF0006422B1FBF2F111F00F010843208105B02E
:100C0000BDE8F08300380140C9B2002904D08189D1
:100C100051F40051818104E081894DF6FF72114049
:100C20008181704770B40024002500260023030052
:100C30000800C0B24009C0B2040089B211F01F0020
:100C400005000120A8400600012C01D10C3304E06E
:100C5000022C01D1103300E01433D2B2002A03D0A9
:100C600018683043186002E01868B043186070BC20
:100C7000704789B2C943018070470022002389B2BE
:100C8000090A0A00012191400B009BB2D94301805F
:100C9000704750F8041B61B150F8042BD30744BFD0
:100CA000A9F101039A18002342F8043B091FFAD165
:100CB000EFE77047164908607047012806D11348CE
:100CC000006850F00100114908600CE010F1020FBB
:100CD00006D10E480068400840000C49086002E058
:100CE0000C48002101607047C0B2002806D00748B8
:100CF000006850F002000549086005E003480068FC
:100D000030F00200014908607047000010E000E088
:100D100014E000E018E000E080B56849884212D095
:100D20006749884218D0674988421ED06649884280
:100D300024D0664988422AD06549884230D0654926
:100D4000884236D040E00121042000F002FA002160
:100D5000042000F0FEF937E00121082000F0F9F945
:100D60000021082000F0F5F92EE00121102000F00C
:100D7000F0F90021102000F0ECF925E001212020FD
:100D800000F0E7F90021202000F0E3F91CE0012148
:100D9000402000F0DEF90021402000F0DAF913E0F5
:100DA0000121802000F0D5F90021802000F0D1F948
:100DB0000AE001214FF4807000F0CBF900214FF4DC
:100DC000807000F0C6F9FFE701BD80B50121012068
:100DD00000F0BFF90021012000F0BBF901BDF0B423
:100DE00000220026002400250023002791F803C0DC
:100DF0001CF00F0C624691F803C05FEACC6C01D581
:100E00008B781A430B781B0621D00368002406E078
:100E1000CD78482D02D10125A5400561641C082C20
:100E200014D20125A5400E882E40AE42F6D1A50071
:100E30000F2616FA05F7BB4312FA05F52B43CD78BA
:100E4000282DE5D10125A5404561E7E703600B8822
:100E5000FF2B26DD4368002420E0012514F108065D
:100E6000B5400E882E40AE4217D1A5000F2616FAC7
:100E700005F7BB4312FA05F52B43CD78282D04D195
:100E8000012514F10806B5404561CD78482D04D1FF
:100E9000012514F10806B5400561641C082CDCD35B
:100EA0004360F0BC70470022806889B2084201D0DC
:100EB000012200E000221000C0B27047000801408B
:100EC000000C0140001001400014014000180140D6
:100ED000001C014000200140DFF8DC02006850F0F7
:100EE0000100DFF8D4120860DFF8D0020068DFF8F4
:100EF000D0120840DFF8C4120860DFF8BC020068B6
:100F0000DFF8C0120840DFF8B0120860DFF8A8026E
:100F1000006830F48020DFF8A0120860DFF89C023F
:100F2000006830F4FE00DFF894120860DFF89802E1
:100F3000002101607047DFF88012096831F48031C8
:100F4000DFF874221160DFF87012096831F4802133
:100F5000DFF864221160B0F5803F03D0B0F5802F38
:100F600009D011E0DFF85002006850F48030DFF85B
:100F70004812086008E0DFF84002006850F4A02042
:100F8000DFF834120860FFE7704780B5002000905A
:100F900000200021312000F0ECF801000098401CF6
:100FA0000090C9B2002903D10098B0F5A06FF1D12B
:100FB000312000F0DEF8002801D0012000E0002000
:100FC000C0B202BD00227D4B1B681A0032F47C12B5
:100FD000084302437948026070477C49C0B2086008
:100FE00070470021754A1268110089088900014381
:100FF0007248016070477148006810F00C0070473B
:1010000000216E4A1268110031F0F00101436B4873
:10101000016070470021694A1268110031F4E061F3
:1010200001436648016070470021644A126811005C
:1010300031F4605151EAC0016048016070470021FD
:101040005E4A1268110031F4404101435B4801607F
:10105000704730B40022002100230024574D2D6832
:1010600015F00C052A00002A04D0042A05D0082A0D
:1010700006D021E05749016020E0564901601DE09B
:101080004E49096811F47011890C891C4B4A126889
:1010900012F48033002B03D14F4A514301600AE020
:1010A000464A1268920303D54B4A5143016002E05D
:1010B000484A5143016001E0464901603F490968DF
:1010C00011F0F00212094549545C0168E1404160A9
:1010D0003A49096811F4E062120A4049545C4168D7
:1010E000E14081603549096811F46052D20A3B49F8
:1010F000545C4168E140C1603049096811F44042E4
:10110000920B3749545CC168B1FBF4F1016130BC0A
:101110007047C9B2002905D03249096808433149EE
:10112000086005E02F49096831EA00002D49086090
:101130007047C9B2002905D02B49096808432A49DC
:10114000086005E02849096831EA0000264908607E
:101150007047C9B2002905D02449096808432349CA
:10116000086005E02149096831EA00001F4908606C
:10117000704710B4002200230021C0B24409E4B239
:101180002200012A02D10C490B6806E0022A02D192
:101190000F490B6801E016490B68C0B210F01F023E
:1011A00033FA02F0C00701D5012100E00021080058
:1011B000C0B210BC70470000001002400410024092
:1011C0000000FFF8FFFFF6FE0810024060004242F8
:1011D0002010024000127A0000093D00701400083F
:1011E0008C140008181002401C1002400C10024021
:1011F00024100240DFF83C10096811F03801DFF8D4
:1012000034201160DFF82C1009680843DFF824103F
:1012100008607047DFF81C10096831F01001DFF832
:1012200014201160DFF80C1009680843DFF804107F
:10123000086070470020024070B4002100220023A3
:1012400000240F25C678002E35D02749096811F4EF
:10125000E061D1F5E061090AD1F10404CD404178A3
:10126000A14082782A4011430901027812F003025A
:10127000D2B2D200914002789210194B53F822203A
:10128000FF23047814F00304E4B2E400A3409A437B
:1012900019400A4301788910114B43F82120017845
:1012A0004911124A0123007810F01F0013FA00F0D0
:1012B00042F821000AE001784911084A0123007828
:1012C00010F01F0013FA00F042F8210070BC7047C4
:1012D000074A1140084303490860704780E100E075
:1012E00000E400E008ED00E00CED00E000E100E0CB
:1012F00080FFFF1F7047FEE7FEE7FEE7FEE770474F
:101300007047704780B5FFF706F801BD704770471A
:101310007047704770477047704770477047704715
:101320007047704770477047704770477047704705
:1013300070477047704770477047704770477047F5
:1013400070477047704770477047704770477047E5
:1013500070477047704770477047704770477047D5
:1013600070477047704770477047704770477047C5
:1013700070477047704770477047704730BF70477D
:1013800020BF704740BF7047BFF36F8F7047BFF3F8
:101390004F8F7047BFF35F8F704701DF7047EFF3E8
:1013A0001480704780F31488BFF36F8F7047EFF39A
:1013B0000980704780F309887047EFF30880704711
:1013C00080F30888704762B6704772B67047EFF3D3
:1013D0001080704761B6704771B67047EFF31380A5
:1013E000704780F311887047EFF31280704740BA5E
:1013F000704700BA7047000010B5074979441831AA
:10140000064C7C44163404E00A68081D51188847CD
:101410000146A142F8D110BD0800000014000000F0
:1014200073F8FFFF2C000000000000200000000007
:1014300000F009F8002801D0FFF7DEFF0020FFF7D9
:1014400030FB00F002F80120704700F001B8000006
:101450000746384600F002F8FBE7000080B5C046BA
:10146000C046024A11001820ABBEFBE7260002006E
:10147000000000000102030401020304060708093A
:10148000C046C046C046C046FFF7D2FF0204060869
:04000005080014815A
:00000001FF
