:020000040800F2
:10000000F0060020251F0008191D00081B1D000810
:100010001D1D00081F1D0008211D00080000000014
:10002000000000000000000000000000251D000886
:10003000231D000800000000271D0008291D0008DE
:10004000311D0008331D0008351D0008371D00084C
:10005000391D00083B1D00083D1D00083F1D00081C
:10006000411D0008431D0008451D0008471D0008EC
:10007000491D00084B1D00084D1D00084F1D0008BC
:10008000511D0008531D0008551D0008571D00088C
:10009000591D00085B1D00085D1D00085F1D00085C
:1000A000611D0008631D0008651D0008671D00082C
:1000B000AB050008691D0008850500086B1D0008D8
:1000C0006D1D00086F1D0008711D0008731D0008DC
:1000D000751D0008510100081111000809020008EF
:1000E000771D0008791D00087B1D00087D1D000894
:1000F0007F1D0008811D0008831D0008851D000864
:10010000871D0008891D00088B1D00088D1D000833
:100110008F1D0008911D0008931D0008951D000803
:10012000971D0008991D00089B1D00089D1D0008D3
:1001300080B5DFF85C160988DFF85826C0B2108059
:100140004021DFF84C0600F0F6FB0028F8D001BD96
:1001500010B5002440F22551DFF8280600F0F9FB25
:10016000DFF824060088C0B2040010BD80B500226C
:10017000C0B2FF2847D0C0B2012816D03BD3032815
:1001800017D014D3052818D015D3072819D016D3A3
:1001900009281BD017D30B281ED01AD30D2821D025
:1001A0001DD30F2824D020D325E0832225E09322DD
:1001B00023E0A52221E0AF221FE0C4221DE0DC22C3
:1001C0001BE0F72219E04FF4837216E040F2174269
:1001D00013E040F2974210E040F227520DE040F267
:1001E00075520AE04FF4C46207E04FF4DC6204E0A9
:1001F0004FF4F76201E040F62D024FF47A711000DF
:1002000080B200F06FF901BD38B50024192540F225
:100210002551DFF87C0500F09CFBDFF874050088B1
:10022000DFF870150988C9B20C00A4B2FF2C14D1F4
:10023000DFF8640500210160DFF86005002101702E
:10024000002004E0DFF8581500224254401C092821
:10025000F8D3DFF84C05047043E1DFF8440500787B
:10026000FF2840F03E81DFF830050068401CDFF8D1
:1002700028150860DFF820050068401E072806D80A
:10028000DFF814050068DFF81815445403E0DFF8C0
:10029000100500210170DFF8000500680828C0F093
:1002A0002081DFF8F40400210160DFF8F004002170
:1002B000017001200AE0DFF8E4140978DFF8E02497
:1002C000825C5140DFF8D4241170401C0828F2D31E
:1002D000DFF8C804007810F07F00DFF8C014087061
:1002E000DFF8BC04007ADFF8B4140978884240F0E3
:1002F0008880DFF8AC044078DFF8A8140870DFF8D5
:10030000A0048078DFF8A0140870DFF89804007863
:10031000022804D0052810D0062839D060E0DFF884
:1003200088040078FFF722FFDFF87804FF210170CE
:10033000DFF87404FF21017052E0DFF86C040078EC
:1003400001281BD1DFF85804C578EDB2002D04D187
:10035000DFF858040021016019E0EDB2C92D16DA6A
:100360002800C0B200F018FDDFF840040121016050
:1003700001215FF0804000F033FE08E0DFF8280440
:100380000078002803D1DFF824040021016027E071
:10039000DFF814040078012804D1DFF814040121E7
:1003A00001601CE0DFF800040078022804D1DFF8C7
:1003B00000040221016012E0DFF8EC03007803285A
:1003C00004D1DFF8EC030321016008E0DFF8D80373
:1003D0000078042803D1DFF8D80304210160FFE787
:1003E000DFF8B40300210160DFF8B00300210170E1
:1003F0000020092809D2DFF8A81300224254401C2B
:10040000F7E7DFF89C0300210170DFF8A403006820
:1004100001280DD1DFF89C03B0F900000012C0B232
:10042000FFF786FEDFF88C030088C0B2FFF780FE7E
:10043000DFF87C03006802280DD1DFF87C03B0F9F7
:1004400000000012C0B2FFF773FEDFF86C030088F3
:10045000C0B2FFF76DFEDFF85803006803280DD126
:10046000DFF85803B0F900000012C0B2FFF760FED9
:10047000DFF848030088C0B2FFF75AFEDFF8300308
:100480000068042829D1DFF82C03B0F9000000121D
:10049000C0B2FFF74DFEDFF81C030088C0B2FFF7C3
:1004A00047FEDFF81403B0F900000012C0B2FFF7F6
:1004B0003FFEDFF804030088C0B2FFF739FEDFF823
:1004C000FC02B0F900000012C0B2FFF731FEDFF805
:1004D000EC020088C0B2FFF72BFEDFF8D402002147
:1004E000016031BD70B504000D0000260121B44843
:1004F00000F0A5FD0021B34800F072FD0021B048D6
:1005000000F06EFD00220121AD4800F088FD0021C1
:10051000AC4800F090FD0021A94800F08CFDA4B289
:10052000002C21D0ADB2002D1ED0A748A4B290FB64
:10053000F4F6A6480680B6B2022096FBF0F0A44975
:10054000088001219F4800F04BFD290089B29C489A
:1005500000F073FD01220121994800F060FD0121A6
:10056000974800F03DFD0CE000220121944800F086
:1005700056FD0021934800F033FD0021904800F023
:100580002FFD70BD80B501218D4800F058FD002180
:100590008C4800F025FD0021894800F021FD002253
:1005A0000121874800F03BFD01BD80B501215FF0CE
:1005B000804000F044FD87480121016001BD38B54D
:1005C00004000D00844800F0AEFB844800F0ABFB53
:1005D000834800F0A8FB834800F0A5FBB4F5FA7F40
:1005E00003D1814800F09FFB05E0B4F5FA6F02D11A
:1005F0007E4800F098FB0F2000F0CEF94FF2244027
:10060000854203D17A4800F08EFB06E046F2A8103E
:10061000854202D1774800F086FB774800F083FBE3
:1006200031BD10B575480021016000F043FA092082
:1006300000F01AFD012000F031FD00F080FA00F01A
:10064000D7F96F48006850F480406D4908606C48E5
:10065000006850F400406A4908605FF4E13000F03F
:10066000C0FA5FF4E13000F0F2FA664800F025FBD2
:100670004FF4C87000F065FB00F0CBFB00F009FC04
:10068000002421E06048006850F480405E49086022
:100690004FF4967140F62D00FFF724FF1E2000F066
:1006A0007BF94FF496714FF4F760FFF71BFF1E20A4
:1006B00000F072F95248006850F4804050490860D8
:1006C0000A2000F069F9641C022CDBD301212F48B9
:1006D00000F0ECF8012240F225512C4800F0F4F82B
:1006E0004FF4FA6000F058F94448006800280CD133
:1006F00000240A2C0DD24FF47A71F720FFF7F2FE96
:10070000C82000F049F9641CF3E74FF4FA6000F0E8
:1007100043F94FF224414FF4FA60FFF750FF0121F3
:10072000184800F0C3F8012240F22551154800F0A6
:10073000CBF80121164800F0B9F8012240F225510A
:10074000134800F0C1F801215FF0804000F048FC40
:100750001448FF2101701F4800680128FBD11D4883
:100760000021016000F090FD104800680128F2D1DE
:100770000024172CEFD22548205CFFF7D9FC641C1D
:10078000F7E7000000380140043801400044004011
:100790000048004004480040D4020020E702002046
:1007A000B4020020E8020020E9020020000000203E
:1007B000D8020020E0020020E2020020E402002033
:1007C000000800400004004040420F002C0400409C
:1007D0003404004004000020B81E0008C41E0008B5
:1007E000D01E0008DC1E0008E81E0008F41E0008E9
:1007F000001F00080C1F0008181F0008D00200206E
:10080000100C014060E31600140C0140900200201F
:100810002DE9F04385B004000D00002000260027DC
:100820005FF000085FF00009A146218A08004CF63D
:10083000FF710840E98808432082A0894EF6F31131
:100840000840A9882A8911436A8911430843A08175
:10085000A08A4FF6FF410840A9890843A08200A85A
:1008600000F0D3FD1048814501D1039E00E0029EB7
:10087000192000FB06F029688900B0FBF1F764201D
:10088000B7FBF0F000010109642202FB11785FEA76
:10089000081132316422B1FBF2F111F00F0108436B
:1008A000208105B0BDE8F08300380140C9B20029BD
:1008B00004D0818951F40051818104E081894DF691
:1008C000FF7211408181704770B40024002500261A
:1008D000002303000800C0B24009C0B2040089B27E
:1008E00011F01F0005000120A8400600012C01D1D5
:1008F0000C3304E0022C01D1103300E01433D2B2E7
:10090000002A03D018683043186002E01868B0432A
:10091000186070BC704710B50400C805C00DA080F9
:100920004021200000F011F84021200000F003F8E1
:100930000028F9D010BD00220088084201D0012211
:1009400000E000221000C0B2704789B2C9430180A4
:1009500070470022002389B2090A0A000121914050
:100960000B009BB2D9430180704710B450F8041BB0
:1009700081B102681218001D50F8043BDC0744BF27
:10098000A9F10104E31852F8044B43F8044B091F82
:10099000F9D1EBE710BC704710B5040042F22830E3
:1009A00000F062FB012000F079FB012000F05FFB0A
:1009B000DFF830050460DFF82C0500680028FAD164
:1009C000002000F06BFB7FF0010000F050FB0020E6
:1009D00000F04DFB10BDDFF80C050068002806D0C4
:1009E000DFF800050068401EDFF8F8140860704763
:1009F00080B500F03AFEDFF8F00400F0DDFDDFF82E
:100A0000EC0400F0D9FDDFF8E80400F0D5FD40204B
:100A1000ADF8000018208DF8030003208DF80200C7
:100A200000A9DFF8C40400F02AFE4FF44040ADF8FE
:100A3000000010208DF8030003208DF8020000A9AB
:100A4000DFF8A80400F01BFE0320ADF80000002032
:100A50008DF8030000A9DFF8900400F010FE4FF4B9
:100A60008160ADF8000048208DF8030000A9DFF890
:100A7000780400F004FE4FF40060ADF8000000A917
:100A8000DFF8680400F0FBFD4FF40170ADF80000E2
:100A900018208DF8030000A9DFF84C0400F0EFFDEA
:100AA0004FF48060ADF8000000A9DFF8400400F0CA
:100AB000E6FD01BD80B500F0EBFB5FF4803000F097
:100AC00016FC00F03EFCDFF82C140870DFF824045C
:100AD0000078012828D1102000F054FE022000F0F8
:100AE00041FE002000F068FC002000F079FC4FF48B
:100AF000806000F06BFC5FF4E0115FF4803000F088
:100B00003DFC4FF4804000F076FC012000F041FCF9
:100B1000392000F00EFD0028FAD0022000F03DFC44
:100B200000F045FC0828FBD1012144F20D2000F023
:100B3000CCFC0121DFF8C00300F0D7FC01BD80B57B
:100B400000215FF0006000F07BFE25208DF80000A2
:100B500000208DF8010000208DF8020001208DF8A2
:100B6000030000A800F020FE26208DF800000020E1
:100B70008DF8010000208DF8020001208DF803009F
:100B800000A800F011FE27208DF8000000208DF84D
:100B9000010000208DF8020001208DF8030000A85C
:100BA00000F002FE1C208DF8000000208DF80100EE
:100BB00000208DF8020001208DF8030000A800F04D
:100BC000F3FD1E208DF8000000208DF801000020AC
:100BD0008DF8020001208DF8030000A800F0E4FD6C
:100BE00001BD30B585B000900020ADF804000020B4
:100BF000ADF806000020ADF808000020ADF80C00AC
:100C00000C20ADF80A00002240F22551DFF8EC027A
:100C1000FFF75AFE00A9DFF8E402FFF7F9FD002113
:100C2000DFF8D802FFF742FEDFF8D0020488DFF8D1
:100C3000D00205884021DFF8C402FFF786FE40F2AB
:100C40002551DFF8B802FFF784FE05B030BD30B59E
:100C500085B000900020ADF804000020ADF806003B
:100C60000020ADF808000020ADF80C000C20ADF815
:100C70000A00002240F22551DFF88802FFF724FE27
:100C800000A9DFF88002FFF7C3FD0021DFF874023E
:100C9000FFF70CFEDFF86C020488DFF86C020588B1
:100CA0004021DFF86002FFF750FE40F22551DFF8E7
:100CB0005402FFF74EFE05B030BD30B585B0009050
:100CC0000020ADF804000020ADF806000020ADF8CB
:100CD00008000020ADF80C000C20ADF80A0000223E
:100CE00040F22551DFF82402FFF7EEFD00A9DFF8FE
:100CF0001C02FFF78DFD0021DFF81002FFF7D6FD83
:100D0000DFF808020488DFF8080205884021DFF8D0
:100D1000FC01FFF71AFE40F22551DFF8F001FFF762
:100D200018FE05B030BD10B5040006E0217889B288
:100D3000DFF8D001FFF7EFFD641C20780028F5D123
:100D400010BDE0B541F6CF31ADF800100021ADF88F
:100D50000210ADF804000020ADF8060000208DF868
:100D6000080000A95FF0804000F0DEF801220121B8
:100D70005FF0804000F053F900215FF0804000F008
:100D80002FF901215FF0804000F059F900215FF058
:100D9000804000F050F907BD38B500240025C0B2EE
:100DA00000F060FD02000B0000205A4900F068FDD1
:100DB0000022594B00F088FE04000D0000220121A2
:100DC0005FF0804000F02BF900215FF0804000F0E0
:100DD00007F900215FF0804000F02DF92000290084
:100DE00001224D4B00F042FF02D800244A4D08E09A
:100DF000200029000022494B00F050FF01D20024BE
:100E0000464D2000290000F061FF80B2FFF799FFF6
:100E100031BD10B588B00024012000F086FB4720CA
:100E2000ADF810000020ADF812004FF47A70ADF864
:100E300014000020ADF8160000208DF8180004A959
:100E4000374800F071F86020ADF800000120ADF8DF
:100E500002000020ADF80400ADF806400020ADF817
:100E600008000020ADF80A004FF48070ADF80C00C7
:100E70000020ADF80E0000A9294800F070F800210C
:100E8000274800F0ADF80121254800F0B7F808B078
:100E900010BDE0B541F61F40ADF800000020ADF8F0
:100EA00002004FF6FF70ADF804000020ADF8060018
:100EB00000208DF8080000A91A4800F035F801223A
:100EC0000121184800F0ABF80021164800F088F81E
:100ED0000121144800F0B3F80021124800F0ABF8EB
:100EE00007BD0000DC02002000080140000C0140AA
:100EF00000100140EA02002007000600003801400F
:100F000004380140004400400444004000480040D0
:100F1000044800400000F03F0088C3400000494002
:100F2000000400400008004010B4028812F08F0254
:100F300002800288CB884C8823431A4302808A8827
:100F400082850A88028501228282234A904202D049
:100F5000224A904201D1097A018610BC704770B4D0
:100F6000002300240022058C4FF6FE7635400584D0
:100F7000058C2C0085882A00058B2B004FF68F7579
:100F80002B400D882B434FF6FD752C400D892C43CB
:100F90004D882C43CD8885860F4DA84202D00F4D39
:100FA000A84213D14FF6F7752C404D892C434FF6CC
:100FB000FB752C408D882C4347F6FF652A4047F689
:100FC000FF552A408D892A43C9890A4382800383B9
:100FD000048470BC70470000002C014000340140C4
:100FE000C9B2002904D0018851F00101018004E058
:100FF000018840F2FE32114001807047C9B20029D9
:1010000006D0B0F8441051F40041A0F8441005E0B7
:10101000B0F844104904490CA0F844107047D2B20B
:10102000002A03D082891143818103E0828932EA58
:10103000010181817047818470478185704789B241
:10104000C9430182704750F8041B61B150F8042B6A
:10105000D30744BFA9F101039A18002342F8043BC7
:10106000091FFAD1EFE77047164908607047012859
:1010700006D11348006850F00100114908600CE0E7
:1010800010F1020F06D10E480068400840000C49DC
:10109000086002E00C48002101607047C0B20028DF
:1010A00006D00748006850F002000549086005E0D6
:1010B0000348006830F002000149086070470000F2
:1010C00010E000E014E000E018E000E05D48406D52
:1010D0002A281CD15B48806D002818D15A4801216C
:1010E00001705A480068401C584908605848006818
:1010F000401C57490860002007E0524911EB80016D
:101100008968544A22F81010401C1328F5D3704700
:1011100038B500245048006890F400404E490860FB
:101120004E48058840F225514C48FFF712FC4C48C8
:101130000088C005C00D04004A48A4B284600020A5
:1011400007E0484911EB80014968464A42F82010FF
:10115000401C0228F5D34348006824280DD141489B
:1011600040683A2809D14048242101603E483A218C
:1011700041603E48022101600AE03C4800683A496B
:10118000A4B241F8204039480068401C3749086043
:101190003648006817281CD334480021016000201D
:1011A00006E02849304A52F8202041F82020401C0F
:1011B0001728F6D32E48012101602E480068411CF3
:1011C0002C4A1160652802D32A4801210160FFF7EB
:1011D0007DFF31BD28482421017027483A21417004
:1011E000002006E0244941181A4A32F810208A707B
:1011F000401C1328F6D320482A2141751E4800219F
:1012000081751448B0F900001249B1F9021051EA91
:1012100000201A4908800F48B0F904000D49B1F9BF
:10122000061051EA0020164908800A48B0F9080063
:101230000849B1F90A1051EA00201249088000203B
:101240007047000008020020E6020020CC020020C7
:10125000C0020020680200200C0C01400044004045
:1012600004440040A802002008000020C40200201E
:10127000C8020020D002002090020020E0020020DE
:10128000E2020020E402002080B5FFF7A3FF01BDC9
:10129000DFF8E402006850F00100DFF8DC120860BB
:1012A000DFF8D8020068DFF8D8120840DFF8CC1267
:1012B0000860DFF8C4020068DFF8C8120840DFF8F1
:1012C000B8120860DFF8B002006830F48020DFF860
:1012D000A8120860DFF8A402006830F4FE00DFF80E
:1012E0009C120860DFF8A002002101607047DFF85F
:1012F0008812096831F48031DFF87C221160DFF850
:101300007812096831F48021DFF86C221160B0F5A1
:10131000803F03D0B0F5802F09D011E0DFF85802EC
:10132000006850F48030DFF85012086008E0DFF801
:101330004802006850F4A020DFF83C120860FFE784
:10134000704780B50020009000200021312000F07F
:10135000F0F801000098401C0090C9B2002903D1A8
:101360000098B0F5A06FF1D1312000F0E2F800282C
:1013700001D0012000E00020C0B202BD00227F4B5E
:101380001B681A0032F47C12084302437B48026057
:1013900070477E49C0B2086070470021774A1268E2
:1013A000110089088900014374480160704773483F
:1013B000006810F00C0070470021704A126811009C
:1013C00031F0F00101436D480160704700216B4A24
:1013D0001268110031F4E061014368480160704710
:1013E0000021664A1268110031F4605151EAC001CF
:1013F0006248016070470021604A1268110031F4B0
:10140000404101435D480160704730B40022002133
:1014100000230024594D2D6815F00C052A00002AE0
:1014200004D0042A05D0082A06D021E059490160D9
:1014300020E0584901601DE05049096811F470111D
:10144000890C891C4D4A126812F48033002B03D199
:10145000514A514301600AE0484A1268920303D599
:101460004D4A5143016002E04A4A5143016001E0A4
:10147000484901604149096811F0F00212094749E1
:10148000545C0168E14041603C49096811F4E06244
:10149000120A4249545C4168E14081603749096859
:1014A00011F46052D20A3D49545C4168E140C16088
:1014B0003249096811F44042920B3949545CC168C1
:1014C000B1FBF4F1016130BC7047C9B2002905D00D
:1014D0003449096808433349086005E0314909681F
:1014E00031EA00002F4908607047C9B2002905D0D1
:1014F0002D49096808432C49086005E02A49096814
:1015000031EA0000284908607047C9B2002905D0B7
:101510002649096808432549086005E02349096808
:1015200031EA00002149086070472149C0B20860D3
:10153000704710B4002200230021C0B24409E4B275
:101540002200012A02D10C490B6806E0022A02D1CE
:101550000F490B6801E017490B68C0B210F01F0279
:1015600033FA02F0C00701D5012100E00021080094
:10157000C0B210BC704700000010024004100240CE
:101580000000FFF8FFFFF6FE081002406000424234
:101590002010024000127A0000093D00A81E000839
:1015A000301F0008181002401C1002400C100240AE
:1015B0004C0042422410024080B56349884212D058
:1015C0006249884218D0624988421ED061498842E7
:1015D00024D0614988422AD06049884230D060498D
:1015E000884236D040E001210420FFF78EFF002121
:1015F0000420FFF78AFF37E001210820FFF785FF6D
:1016000000210820FFF781FF2EE001211020FFF7C5
:101610007CFF00211020FFF778FF25E0012120202A
:10162000FFF773FF00212020FFF76FFF1CE001216F
:101630004020FFF76AFF00214020FFF766FF13E01C
:1016400001218020FFF761FF00218020FFF75DFF6F
:101650000AE001214FF48070FFF757FF00214FF49B
:101660008070FFF752FFFFE701BD80B50121012027
:10167000FFF74BFF00210120FFF747FF01BDF0B44A
:1016800000220026002400250023002791F803C033
:101690001CF00F0C624691F803C05FEACC6C01D5D8
:1016A0008B781A430B781B0621D00368002406E0D0
:1016B000CD78482D02D10125A5400561641C082C78
:1016C00014D20125A5400E882E40AE42F6D1A500C9
:1016D0000F2616FA05F7BB4312FA05F52B43CD7812
:1016E000282DE5D10125A5404561E7E703600B887A
:1016F000FF2B26DD4368002420E0012514F10806B5
:10170000B5400E882E40AE4217D1A5000F2616FA1E
:1017100005F7BB4312FA05F52B43CD78282D04D1EC
:10172000012514F10806B5404561CD78482D04D156
:10173000012514F10806B5400561641C082CDCD3B2
:101740004360F0BC7047000000080140000C0140FD
:10175000001001400014014000180140001C01402D
:1017600000200140DFF83C10096811F03801DFF873
:1017700034201160DFF82C1009680843DFF82410CA
:1017800008607047DFF81C10096831F01001DFF8BD
:1017900014201160DFF80C1009680843DFF804100A
:1017A000086070470020024070B40021002200232E
:1017B00000240F25C678002E35D02749096811F47A
:1017C000E061D1F5E061090AD1F10404CD4041782E
:1017D000A14082782A4011430901027812F00302E5
:1017E000D2B2D200914002789210194B53F82220C5
:1017F000FF23047814F00304E4B2E400A3409A4306
:1018000019400A4301788910114B43F821200178CF
:101810004911124A0123007810F01F0013FA00F05A
:1018200042F821000AE001784911084A01230078B2
:1018300010F01F0013FA00F042F8210070BC70474E
:10184000074A1140084303490860704780E100E0FF
:1018500000E400E008ED00E00CED00E000E100E055
:1018600080FFFF1F010000BF09D0B0FA80F188405F
:10187000C91CC1F58461090501EBD0214005704701
:10188000F0B540F2FF7581EA030C0CF0004C15EA4C
:1018900011541DBF15EA1357AC42AF42E5E0BC41FD
:1018A000C1F31301C3F31303801A994143F4801366
:1018B00004D2641E4000494180185941C90241EADE
:1018C0005051B1FBF3F603FB1611A2FB0675D7EBE3
:1018D000C020A94102D2761E80185941C90241EAAE
:1018E0005051B1FBF3FE03FB1E11A2FB0E75D7EBAB
:1018F000C020A94103D2AEF1010E801859418902DE
:1019000041EA9051760546EA8E2EB1FBF3F603FBD1
:101910001611A2FB0675D7EB8020A94102D2761ED4
:1019200080185941C90241EA50514EEA060EB1FBF6
:10193000F3F603FB1611A2FB0675D7EBC020A941F5
:1019400002D2761E80185941C90241EA5051B1FBBA
:10195000F3F703FB1711A2FB0735D3EBC020A94116
:1019600067F100070CBF004247F0010766F3D52777
:101970004FEA1E31B80814F5806412DDBD0775F119
:10198000004250EB0E5051EB045111F5801F5CBF2B
:1019900041EA0C01F0BD4CF07F6141F0E0410020D4
:1019A000F0BDBD076D0840EA0E5041F48011D4F13E
:1019B0000104B4F120060ADAC4F120060200E04076
:1019C00001FA06F3E1401843B24015430EE0342C0F
:1019D00013DCC6F1200445EA40056D0820FA06F242
:1019E000154321FA06F0A1400D43002175F1004294
:1019F00050F1000051EB0C01F0BD00205FEA0C013A
:101A0000F0BDCFB992185B41B3FA83F704BFB2FAC5
:101A100082F6BF190B3FB7F120062FBF02FA06F37B
:101A2000BB40C7F1200622FA06F638BF3343BA405E
:101A30001CB1E419641E33E77F4231F00041B1FA72
:101A400081F404BFB0FA80F6A4190B3CB4F120066F
:101A50002FBF00FA06F1A140C4F1200620FA06F6D5
:101A600038BF3143A0403C1B1AE7AC421ABF05EA1D
:101A70001357AF4212E050EA41061CBF52EA430638
:101A8000BFE750EA4107304661461CBF41EA0551B5
:101A9000F0BD52EA430C08BFC143F0BD00204FF433
:101AA000001616EB410F98BF16EB430F08BF16EB5D
:101AB000410F24BFC14305E016EB430F0CBF614645
:101AC0004CEA0551F0BD0000B0B581EA030C0CF002
:101AD000004C40F2FF7515EA11541DBF15EA13576B
:101AE000AC42AF4239E0E41923EA455343F4801392
:101AF000C90241F0004141EA505EC7021100A7FB54
:101B0000020200284FF00000EEFB01204FF0000120
:101B1000E3FB072118BF42F00102401800214941B0
:101B2000E3FB0E01A4F580640F0302D25200404192
:101B3000494154F101046CDD470872F1004250F153
:101B4000000051EB0451A1F580115CBF41EA0C018A
:101B5000B0BD4CEA05510020B0BD05EA1357AC42B8
:101B600014BFAF4241E050EA410E1CBF52EA430E9F
:101B700002E061460020B0BD24423C441BD15FEA34
:101B8000070EF6D0090302BF01460020AEF1140E85
:101B9000B1FA81F7AEEB070401FA07FE0C37C7F183
:101BA000200100FA07F7C8404EEA000E23EA455329
:101BB00043F48013A2E733F00043B3FA83F704BF82
:101BC000B2FA82FE77440B3FE41BB7F1200E2FBF21
:101BD00002FA0EF3BB40C7F1200E22FA0EFE38BF08
:101BE00043EA0E03BA40641C82E750EA410E14BF78
:101BF00052EA430E6FF000014FF4001717EB430F4A
:101C00008ABF194617EB410FB5E74CEA0551002092
:101C1000B0BDD4F10104B4F120070FDAC4F12007FC
:101C2000520828BF42F0010210FA07F501FA07F73F
:101C3000E1BF2A43E0403843E1400FE0352C98DC17
:101C4000C7F1200452EA400220FA07F218BF42F01E
:101C5000010231FA07F0A1400A43002172F100426B
:101C600050F1000051EB0C01B0BD00004FF4001C1E
:101C70001CEB410F94BF1CEB430F09E041EA030C3E
:101C800050EA4C0C52EA0C0C03D28B4208BF824241
:101C9000704714BF99429042704700004FF4001CF7
:101CA0001CEB410F94BF1CEB430F09E041EA030C0E
:101CB00050EA4C0C52EA0C0C03D2994208BF9042F5
:101CC000704714BF8B42824270470000F446400DBB
:101CD00040EAC120490006D200F00EF8004248BF99
:101CE0006FF00040604700F007F84FF00041884275
:101CF0008CBF08464042604740F00040490DA1F5C6
:101D00008061491C05D4D1F11F0154BFC840C017E0
:101D100070474FF0000070477047FEE7FEE7FEE7B0
:101D2000FEE770477047704780B5FEF754FE01BD6F
:101D300070477047704770477047704770477047EB
:101D400070477047704770477047704770477047DB
:101D500070477047704770477047704770477047CB
:101D600070477047704770477047704770477047BB
:101D700070477047704770477047704770477047AB
:101D8000704770477047704770477047704770479B
:101D90007047704770477047704770477047000042
:101DA00030BF704720BF704740BF7047BFF36F8F91
:101DB0007047BFF34F8F7047BFF35F8F704701DFEE
:101DC0007047EFF31480704780F31488BFF36F8F70
:101DD0007047EFF30980704780F309887047EFF38D
:101DE0000880704780F30888704762B6704772B603
:101DF0007047EFF31080704761B6704771B6704757
:101E0000EFF31380704780F311887047EFF312806F
:101E1000704740BA704700BA7047000010B50749D4
:101E200079441831064C7C44163404E00A68081DD5
:101E3000511888470146A142F8D110BD08000000A2
:101E40002800000003F2FFFFE40200000800002069
:101E50000000000017EBFFFF08000000D8000000A2
:101E6000000000200000000000F009F8002801D068
:101E7000FFF7D4FF0020FEF7D4FB00F002F80120AA
:101E8000704700F001B800000746384600F002F83D
:101E9000FBE7000080B5C046C046024A110018208A
:101EA000ABBEFBE7260002000000000001020304B5
:101EB00001020304060708092552434D442C472C10
:101EC0004E2A00002552434D442C502C472A000036
:101ED0002552434D442C502C542A00002552434D8A
:101EE000442C412C422A00002552434D442C452CC1
:101EF000422A00002552434D442C452C432A000021
:101F00002552434D442C432C462A00002552434D74
:101F1000442C432C452A00002552434D442C532C7D
:101F2000592A0000C046C046C046C046FFF79CFF85
:0C1F30000204060801000000010000008F
:0400000508001F25AB
:00000001FF
