:020000040800F2
:1000000090270020F9800008E97E0008EB7E0008B8
:10001000ED7E0008EF7E0008F17E00080000000081
:10002000000000000000000000000000F57E000855
:10003000F37E000800000000F77E0008F97E00084B
:10004000FD7E0008FF7E0008017F0008037F000896
:10005000057F0008077F0008097F00080B7F000864
:100060000D7F00080F7F0008117F0008137F000834
:10007000157F0008177F0008197F00081B7F000804
:100080001D7F00081F7F0008217F0008237F0008D4
:10009000257F0008277F0008297F00082B7F0008A4
:1000A0002D7F00082F7F0008317F0008337F000874
:1000B000ED1800086B2E000837510008357F000846
:1000C000377F0008397F00083B7F00083D7F00082C
:1000D0003F7F000849230008912000083B5E00088C
:1000E000417F0008437F0008457F0008477F0008E4
:1000F000497F00084B7F00084D7F00084F7F0008B4
:10010000517F0008537F0008557F0008577F000883
:10011000D34C0008597F00085B7F00085D7F000812
:100120005F7F0008617F0008637F0008657F00082B
:1008000006000100040003030303000000000000D1
:100810003630313230303030313030303500000059
:10082000F31B0705740000000C0D0D0D0D000000FA
:1008300000000000000000000000000000000000B8
:1008400000000000000000000000000000000000A8
:100850000000000000000000000000000000000098
:100860007F7F7F7F30CE7F7F7F7F7F7F50AE897598
:100870007F7FCE307F7F7F7F7F017F7F7F7F7F0085
:10088000FFFFFFFFFFFFFFFFFFFFFFFFFFFFFFFF78
:10089000FFFFFFFFFFFFFFFFFFFFFFFFFFFFFFFF68
:1008A0000000000000000000000000000000000048
:1008B0000000000000000000000000000000000038
:1008C0000000000000000000000000000000000028
:1008D0000000000000000000000000000000000018
:1008E0000000000000000000000000000000000008
:1008F00000000000000000000000000000000000F8
:1009000000000000000000000000000000000000E7
:1009100000000000000000000000000000000000D7
:1009200000000000000000000000000000000000C7
:1009300000000000000000000000000000000000B7
:1009400000000000000000000000000000000000A7
:100950000000000000000000000000000000000097
:100960000000000000000000000000000000000087
:100970000000000000000000000000000000000077
:100980000000000000000000000000000000000067
:100990000000000000000000000000000000000057
:1009A0000000000000000000000000000000000047
:1009B0000000000000000000000000000000000037
:1009C0000000000000000000000000000000000027
:1009D0000000000000000000000000000000000017
:1009E0000000000000000000000000000000000007
:1009F00000000000000000000000000000000000F7
:100A000000000000000000000000000000000000E6
:100A100000000000000000000000000000000000D6
:100A200000000000000000000000000000000000C6
:100A300000000000000000000000000000000000B6
:100A400000000000FFFFFFFFFFFFFFFFFFFFFFFFB2
:100A5000FFFFFFFFFFFFFFFFFFFFFFFF009000080A
:100A60000000000000000000000000000000000086
:100A70000000000000000000000000000000000076
:100A80000000000000000000000000000000000066
:100A90000000000000000000000000000000000056
:100AA0000000000000000000000000000000000046
:100AB0000000000000000000000000000000000036
:100AC0000000000000000000000000000000000026
:100AD0000000000000000000000000000000000016
:100AE0000000000000000000000000000000000006
:100AF00000000000000000000000000000000000F6
:100B000000000000000000000000000000000000E5
:100B100000000000000000000000000000000000D5
:100B200000000000000000000000000000000000C5
:100B300000000000FFFFFFFFFFFFFFFFFFFFFFFFC1
:100B4000FFFFFFFFFFFFFFFFFFFFFFFF785634129D
:100B50000000000000000000000000000000000095
:100B60000000000000000000000000000000000085
:100B70000000000000000000000000000000000075
:100B80000000000000000000000000000000000065
:100B90000000000000000000000000000000000055
:100BA0000000000000000000000000000000000045
:100BB0000000000000000000000000000000000035
:100BC0000000000000000000000000000000000025
:100BD0000000000000000000000000000000000015
:100BE0000000000000000000000000000000000005
:100BF00000000000000000000000000000000000F5
:100C000000000000000000000000000000000000E4
:100C100000000000000000000000000000000000D4
:100C200000000000000000000000000000000000C4
:100C300000000000000000000000000000000000B4
:100C400000000000000000000000000000000000A4
:040C500000000000A0
:1010000006000100040003030303000000000000C9
:101010003630313230303030313030303500000051
:10102000F31B0705740000000C0D0D0D0D000000F2
:1010300000000000000000000000000000000000B0
:10104000FDFDFDFD000000000000000000000000AC
:101050000000000000000000000000000000000090
:101060007F7F7F7F30CE7F7F7F7F7F7F50AE897590
:101070007F7FCE307F7F7F7F7F017F7F7F7F7F007D
:10108000FFFFFFFFFFFFFFFFFFFFFFFFFFFFFFFF70
:10109000FFFFFFFFFFFFFFFFFFFFFFFFFFFFFFFF60
:1010A0000000000000000000000000000000000040
:1010B0000000000000000000000000000000000030
:1010C0000000000000000000000000000000000020
:1010D0000000000000000000000000000000000010
:1010E0000000000000000000000000000000000000
:1010F00000000000000000000000000000000000F0
:1011000000000000000000000000000000000000DF
:1011100000000000000000000000000000000000CF
:1011200000000000000000000000000000000000BF
:1011300000000000000000000000000000000000AF
:10114000000000000000000000000000000000009F
:10115000000000000000000000000000000000008F
:10116000000000000000000000000000000000007F
:10117000000000000000000000000000000000006F
:10118000000000000000000000000000000000005F
:10119000000000000000000000000000000000004F
:1011A000000000000000000000000000000000003F
:1011B000000000000000000000000000000000002F
:1011C000000000000000000000000000000000001F
:1011D000000000000000000000000000000000000F
:1011E00000000000000000000000000000000000FF
:1011F00000000000000000000000000000000000EF
:1012000000000000000000000000000000000000DE
:1012100000000000000000000000000000000000CE
:1012200000000000000000000000000000000000BE
:1012300000000000000000000000000000000000AE
:1012400000000000FFFFFFFFFFFFFFFFFFFFFFFFAA
:10125000FFFFFFFFFFFFFFFFFFFFFFFF0090000802
:10126000000000000000000000000000000000007E
:10127000000000000000000000000000000000006E
:10128000000000000000000000000000000000005E
:10129000000000000000000000000000000000004E
:1012A000000000000000000000000000000000003E
:1012B000000000000000000000000000000000002E
:1012C000000000000000000000000000000000001E
:1012D000000000000000000000000000000000000E
:1012E00000000000000000000000000000000000FE
:1012F00000000000000000000000000000000000EE
:1013000000000000000000000000000000000000DD
:1013100000000000000000000000000000000000CD
:1013200000000000000000000000000000000000BD
:1013300000000000FFFFFFFFFFFFFFFFFFFFFFFFB9
:10134000FFFFFFFFFFFFFFFFFFFFFFFF7856341295
:10135000000000000000000000000000000000008D
:10136000000000000000000000000000000000007D
:10137000000000000000000000000000000000006D
:10138000000000000000000000000000000000005D
:10139000000000000000000000000000000000004D
:1013A000000000000000000000000000000000003D
:1013B000000000000000000000000000000000002D
:1013C000000000000000000000000000000000001D
:1013D000000000000000000000000000000000000D
:1013E00000000000000000000000000000000000FD
:1013F00000000000000000000000000000000000ED
:1014000000000000000000000000000000000000DC
:1014100000000000000000000000000000000000CC
:1014200000000000000000000000000000000000BC
:1014300000000000000000000000000000000000AC
:10144000000000000000000000000000000000009C
:041450000000000098
:10180000E0B54FF6FF70ADF8040041F21E30ADF8C0
:1018100000000020ADF80200ADF806008DF80800C9
:1018200000A94FF0804002F0D3FA00F006F8012141
:101830004FF0804002F0EAFA07BD012201214FF08B
:10184000804002F0EDBA10B50446A11E89B24FF0F7
:10185000804002F0EDFA21464FF0804002F0EAFAB3
:1018600000F052F8FFF7E9FF01214FF08040BDE89A
:10187000104002F0CBBA80B50022FFF7DFFF002155
:101880004FF0804002F0C2FA00214FF08040BDE8E6
:10189000044002F0CDBA70B5DFF8544ADFF8546A5C
:1018A000DFF8545AB5F92A00DFF8501A49888842FF
:1018B0000EDB00206885E874B067FFF7DCFF287C4A
:1018C00000F0FB002874606840F08000606070BD2C
:1018D000287C40F00400287401F01EFD0020707187
:1018E000B071206880F08000206070BD80B500F08D
:1018F0000BF8DFF8000A012141718171816F491CE9
:101900008167BDE80140C6E701214FF0804002F049
:1019100093BA38B5DFF8E449A08802F09BFADFF803
:10192000E01902F0B7FA0546608802F093FA014622
:10193000284602F01BFBDFF8C0494FF08F4102F050
:1019400093FB94BF4FF6FF7002F0A0FBA08501202F
:10195000E0740020607500214FF0804002F068FACA
:10196000A08DFFF770FF207C40F00400207431BD93
:101970002DE9F04F0024DFF88C59DFF88C69DFF88F
:101980008C99DFF88C89DFF8747904EB8400C01936
:101990008179B1B3C17928F81410027A29F814209A
:1019A000407A09EB840A91421FD0052829D2501AA7
:1019B00002F046FA8346788802F04CFA014658460F
:1019C00002F0D4FACAF88000DFF8481902F04CFBA4
:1019D00004D8DFF84409CAF8800012E0314602F06A
:1019E00077FB0ED2CAF880600BE0052809D20020F0
:1019F000CAF8800045F8240009EB44000021A0F853
:101A00004010641C1F2CC0DBDFF8EC08002141856E
:101A1000BDE8F08FDFF80429821892F86020DFF823
:101A20000039C35CD21ADFF8CC3803EB4000828661
:101A3000501800B2FF28A8BFFE2002DA0128B8BF64
:101A40000120C0B270477CB505460C4600A8DFF8FF
:101A5000D4180CC90CC0002600A8305C02F061FB51
:101A6000761C082EF8D3284602F05BFBDFF88808C6
:101A7000407C02F056FB032501F0A7F96D1EFBD157
:101A8000204602F04EFB73BDDFF86C080021818414
:101A9000418C491C418470472DE9F8434FF0FF0801
:101AA000DFF87898DFF88068DFF84C78386F08281E
:101AB00079D306F227131A7A341DDFF87058386F7D
:101AC000082838D196F82701000270605978081864
:101AD000000270609978081800027060D9780818C0
:101AE00070601879207158790002E080997908189F
:101AF000E080228102EB42015200921C00FB0210A6
:101B0000001DF97F09EB4101A1F8B002022100F0AC
:101B10002FF90221706800F02BF90121207902F0E1
:101B200012FD0121208902F00EFD0221E08802F061
:101B30000AFD002036E0387F396FB4F808C04FF056
:101B4000060E0EFB0CFC0CF1090C614503D20121C1
:101B500002F0F9FC27E0297803291CBF2978052920
:101B600006D10221D87902EB002000F001F917E03C
:101B70002978072914D32978891F052291FBF2F2CD
:101B800002EB8202891A0BD0012102F0DCFC2878DA
:101B9000218901EB8101491D884208BF85F8008039
:101BA0002878401C2870B88C401CB884386F401CC2
:101BB0003867386FD6F8C810491C88423FD14FF6B5
:101BC000FF760221304602F0BEFC00F0D7F800F0AC
:101BD000D8F8786FB98C491E08187867F87E397F75
:101BE000884210D187F81280F87F401CF87799F866
:101BF0003003401C89F8300302F055F801F0D7F8A3
:101C000000F0B9F818E00220B874F87F09EB400042
:101C100000F001FA00F1006000F5104002F0EBFB6B
:101C20000221304602F08FFC00F0A8F800F0A9F87D
:101C300002F039F801F0BBF8002078840FE0B88C8E
:101C4000402808D100F09AF8786F4030786700207B
:101C5000B88400F090F8F87E397F4840F876BDE807
:101C6000F18370B5DFF8B446DFF88C56286F06288C
:101C70003ED3DFF8B866286F06282AD1DFF8A80619
:101C800090F82C11696000F596704178297281787E
:101C900009026981C0784018688195F8201004EB2A
:101CA000410280B20A214843801DA2F81803022194
:101CB000B2F8180302F047FC0121686800F058F8F8
:101CC0000121287A02F03FFC0221688902F03BFCE6
:101CD0000CE03078022803D30121287F02F033FC86
:101CE0003078401C3070C0B20C2801D10020307018
:101CF000A88C401CA884286F401C2867286FA989DD
:101D0000491C89B2884222D101F042F800F036F82D
:101D100000F037F8686FA98C491E08186867E87EDC
:101D2000297F88420ED1FF20A87495F82000401C1E
:101D300085F8200094F83103401C84F8310300F04A
:101D40001AF801E00220A8740020688470BDA88CF5
:101D5000402808D100F012F8686F40306867002012
:101D6000A88400F008F8E87E297F4840E87670BD36
:101D700080B202F0E8BB402002F0D3B9002002F0AC
:101D8000C6BB002002F07CBBDFF86C158A8C521CAD
:101D90008A848A8C042A09D100228A84CA760A7F1E
:101DA000824206BF488C401C002048847047DFF800
:101DB0004805017FC27E4A40C276012913BF02292D
:101DC000418C491C00214184704770B5DFF82845DB
:101DD000207F012813D11F210B20FFF734FE00F0D4
:101DE0002CF8A81900F0B5F8E07EA91991F8601058
:101DF0004840E0766D1C1F2DF3DB00F0B1F819E0D0
:101E000070B5DFF8F444207F012813D10D210C2098
:101E1000FFF719FE00F011F8A819007C02F081F913
:101E2000E07EA919097C4840E0766D1C0D2DF3DB9E
:101E300000F096F80020608470BD0020E076002558
:101E4000DFF8D8647047DFF8B014CA7E0B7F5A40C1
:101E5000CA768A8C521C8A848A8C824202D1488C2F
:101E6000401C4884704770B5DFF88C44E07E217FC9
:101E7000884223D10020DFF8A4544119DFF8A824B8
:101E8000821892F822210A74401C0D28F5DB00F01C
:101E90008EFF0D210D20FFF7D6FD0020E0760646CF
:101EA0007019007C02F03DF9E07E7119097C484010
:101EB000E076761C0D2EF3DB00F052F8BAE700E076
:101EC00000BFDFF83404818C491C8184818C042993
:101ED00007D100218184C176418C491C4184017F56
:101EE0008176704770B5DFF81044E07E217F88422C
:101EF0002ED1FF20A0740020DFF820540BE0A17E3B
:101F0000411ADFF82424891891F82F11421982F818
:101F10006010401C00B2A17E8842F0DB00F047FF59
:101F2000A17E0E20FFF78FFD0020E07600260AE05C
:101F3000701900F00EF8E07E711991F860104840B9
:101F4000E076761C36B2A07E8642F1DB00F008F81F
:101F500070E790F8600002F0E4B8E07E6840E07658
:101F6000E07E02F0DEB870B5DFF88C43E07E217FC2
:101F700088424FD1DFF8A403D0F85C12DFF8A82321
:101F800092F82E21DFF8A8331B68012A0CD1E27FDA
:101F90003AB100EB420000F03EF800F1006101F5BB
:101FA0001041581C451A19E0022A0ED194F820104D
:101FB00009B9002006E000EB4100B0F8FE12B0F8CD
:101FC00016034018C0F5805508E0032A02D1581ABC
:101FD000451C03E0042A08BF4FF4805504210F205C
:101FE000FFF731FD0020E0762E0E00F0D6FE00F067
:101FF000C5FE2E0CF0B202F094F800F0BFFE2E0ADF
:10200000F0B202F08EF800F0B9FEE8B202F089F802
:10201000FFF7A3FF0EE7B0F85E12B0F8AE0240186B
:102020004000704770B5C34C257C022D2FDBC248A1
:1020300090F90010012904D100210170217461740C
:1020400070BDBE4E0FCC0FC6103C103E0020207459
:1020500094F91100BA4991F90010012908BF00282C
:1020600009D1B07BF17B01F07F0141EAC010DFF8BC
:10207000EC1C088070BD012809D168428019007CE1
:1020800002F04FF86D1E012DF7DA0020607470BD6C
:1020900038B5AC4D40F22551284602F09AFBDFF8E6
:1020A000C04C606840F4804060602888284602F098
:1020B00084FBA0490A7C521C0A7401225318555C07
:1020C00003F8015C521C102AF8DBC873206840F446
:1020D0008040206031BD8848408C70472DE9F04138
:1020E000854CE08C0428C0F08880E08C052852D014
:1020F000DFF8706C33788F4DE08C04282FD1FF2BE4
:102100007BD1B1787778F07881EA070202F07F021C
:10211000904272D17E09052E0BD251B107F01F00FB
:10212000FFF778FC0246314607F01F0002F090FBF3
:102130005FE0052E09D107F01F002821DFF8282CC9
:1021400001FB00200121417706E0062E51D101203C
:102150006874384602F008F80020287449E03279A3
:10216000F178B078777880EA070C81EA0C0C82EA83
:102170000C0CDFF814EDB4F82680B8F1060F1FD16F
:10218000DEF8008048F40048CEF800800CF07F0CA8
:10219000FF2B32D1FF2F30D0A0F10803DBB25C2B34
:1021A0002BD27379634528D100232B7401236B74E0
:1021B00013460A46014607F01F0001F0F8FF18E039
:1021C000E78C072F1BD1DEF8007047F40047CEF8EC
:1021D0000070FF2B11D17379B67983EA0C0707F0F1
:1021E0007F07BE4209D100262E7401266E7402F0CC
:1021F00009F80020E084012006E0002004E0E08CE3
:10220000082824BF0020E084BDE8F08110B501203B
:10221000454BC118C21892F8CC2081F8CB20401C45
:102220006428F6DB3449087F03F59472D07193F883
:102230002831FF2B04BF5378FF2B15D19378AA2B9D
:1022400004BFD378552B0FD11379AA2B04BF537930
:10225000552B09D19379372B08BFBA2804D1012017
:102260004884887F487707E04B8C3BB940F2657122
:10227000DFF8A80C02F0ADFA012010BD4B8C5B1EFC
:102280000AD040F2AF441B1B0BD05B1E0CD05B1E70
:102290000ED05B1E12D028E0142824D14FF4966093
:1022A00022E0FFF7F1FB20E00120FFF76DFD1CE0CD
:1022B000CA7E5040C876488C401C15E0CB7E8342D5
:1022C00011D100200875012008769079072805D1E2
:1022D00001224A750A7C02F0FB020A7400224A8439
:1022E00002F076FC01E000204884002010BD0000D0
:1022F0000C100140601B0020000000201819002075
:10230000CDCC6C41DC1B002000007DC3B415002047
:10231000981D002001007D4300007D43EC0D00204E
:10232000788000080481000840140020861F0020E7
:10233000C4000020481F0020841F00205C1F0020D4
:10234000881F0020004400402DE9F84F40F225513D
:10235000DFF8C80B02F03DFADFF84C0C00210160F9
:10236000DFF8B80B0088DFF8444CDFF8B00B02F060
:1023700024FA207794F81CE0DFF8688CDFF8686CAA
:10238000207D002800F0F180BEF1FF0F04BF002087
:10239000E084DFF8580C90F9000001281CBFA07DF4
:1023A00001280FD0E08C411CE184DFF8B81900F857
:1023B00001E0DFF8D40A016841F400710160FFF721
:1023C0008DFE012800F0C884FFF720FF207FFF2842
:1023D00003D10120B084002060E0B18C012931D00C
:1023E000022937D0032947D004294ED0052957D0D8
:1023F0000A296AD00B2967D00C296AD01E2964D01B
:102400001F295DD020296ED0212900F07F80282946
:102410005BD0292958D02A2900F08F80322954D046
:10242000332951D0342900F097808C294DD08D2943
:102430004AD0DC2949D0DD2946D0E62945D0E72914
:1024400042D0C1E000F0E001E02906BFB18C491C98
:10245000002116E0FB2802D1B18C491C11E000F1EB
:102460002301C9B2182905D200F12401C9B20A22F8
:10247000514306E0002104E0012806BFB18C491C4D
:102480000021B184E17E484008E0B18C491CB18450
:10249000E17E4840E076E07E00F07F00E07693E069
:1024A000E17E88425ED1F422012101F0C2FA207C53
:1024B00040F00100207400202075F070307851E069
:1024C0000021B17020284DD27070E17E4840E07646
:1024D00015E0E17E884245D1DD2001F022FE7078D2
:1024E00001F01FFE3EE0E17E4140E176B1788A19BD
:1024F0001071481CB0707178C0B2884264D3E07E1D
:1025000000F07F00E076B08C401C2CE0E17E884239
:102510005AD1002507E005EB0800A919097980F8D0
:102520006010681C85B271788D42F4D300F03FFCD6
:10253000DF2001F0F6FD70780EE2E17E884211D1D5
:102540001F2001F0EEFD002505EB0800FFF701FD5F
:102550006D1C1F2DF8DB05E0E17E884204BF70781A
:1025600002F036FB0020B0842EE00125DFF8449C09
:1025700005EB090090F8CC1080F8CB106D1C642D91
:10258000F6DB09F5947585F807E099F82801FF282E
:1025900004BF6878FF2818D1A878AA2804BFE87873
:1025A000552812D12879AA2804BF687955280CD15A
:1025B000A879372808BFBEF1BA0F06D10020F07005
:1025C00001206084A07F6077BFE3608C0028FBD08F
:1025D000A87908F54C777988DFF8DCABDFF8DC2BDD
:1025E0004FF0FF0B638C5B1E00F0B780633B66D03F
:1025F0005B1E00F02B815B1E00F07681623B00F0D9
:1026000076815B1E00F078815B1E00F0BB81623B2F
:1026100055D05B1E60D05B1E4BD05B1E00F0B581B9
:10262000613B4CD05B1E57D05B1E42D05B1E00F05E
:10263000AF81613B43D05B1E00F0AD815B1E00F0BB
:10264000AC815B1E00F0AB81613B38D05B1E00F0BB
:10265000A9815B1E00F0A9815B1E00F0A881613B8F
:102660002DD05B1E38D05B1E00F0A4815B1E00F0F5
:10267000AD81613B23D05B1E2ED05B1E19D05B1E4B
:1026800000F0A781613B1AD05B1E25D05B1E10D0E5
:102690005B1E00F0C981613B11D05B1E1CD05B1E2C
:1026A00007D05B1E00F01E82613B08D05B1E13D07A
:1026B0005B1E00F0A9825B1E00F02782613B00F0E8
:1026C000C1825B1E08D05B1E00F03A825B1E00F0E8
:1026D0003C82613BF3D05B1E00F094825B1E00F0F5
:1026E00048825B1E00F04D8240F2E5369B1BE6D02F
:1026F0005B1EF1D05B1E00F050825B1E00F0558225
:1027000041F209769B1BDAD05B1EE5D05B1ED0D070
:102710005B1E00F07C82613BD1D05B1E00F0958295
:102720005B1E00F096825B1E00F09782613B00F01A
:10273000D0825B1E0BD05B1E00F0D0825B1E00F0CF
:10274000D1825B1E08D0603B00F0E3825B1E00F08C
:10275000E3825B1E00F0E382F5E24FF47A70A17D24
:1027600049B1BEF1140F49D0BEF1100F32D0BEF105
:10277000120FF1D1E8E2BEF1010F03D10020A084D5
:102780006420E1E2BEF1020F03D10020A084C82042
:10279000DAE2BEF10B0F08BF4FF49670F8D0BEF12D
:1027A0000C0F08BF4FF4C870F2D0BEF10D0F08BF78
:1027B0004FF4FA70ECD0BEF10E0F08BF4FF4167054
:1027C0000AD0BEF10F0F08BF4FF42F7004D0BEF136
:1027D000100F02D14FF44870B6E2BEF1110F0CBFDA
:1027E0004FF46170BEF1120FF6D0BEF1130F08BFA7
:1027F00040F24C4004D0BEF1140F02D14FF4966069
:10280000A2E2BEF1150F08BF40F21450F8D0BEF19D
:102810001F0F08BF40F6FC00F2D0BEF15A0F08BFF0
:1028200042F20800ECD0BEF15B0F08BF42F26C0030
:102830000BD0BEF11D0F08BF42F2D00005D0BEF193
:10284000230F40F0808242F234107DE2A18C491CBB
:10285000A184A18C042949D10021A1842167E176BA
:102860002979C9F8C8106A7942EA0121C9F8C81063
:1028700040EA0120C9F8C8004EEA0020C9F8C800A3
:10288000E07FC8B9D8F85C02DFF84C1B091849088A
:10289000A8F86012002188F8301301F0ACFD002088
:1028A000A08484F812B0E07F08EB4000B0F860022A
:1028B0004000606766204DE0282810D208EB4000F9
:1028C000B0F85E12B0F8AE22511800F25E204180DE
:1028D0000904C80B00F1006000F51040DDE703209B
:1028E000A0740020608437E2FFF7D6F82DE284F868
:1028F00008E00020A08423E2A18C491CA184A18CC3
:102900000429F3D10021A1842167E1762979A181ED
:102910006A7942EA0121A18140EA0120A0814EEAC0
:102920000020A08194F82000C8B9A8F800037870AE
:1029300001F04CFDDFF8A40AC0F800A00020A0843C
:1029400084F812B094F8200008EB4000B0F80003BF
:102950006067CA206084402001F0E3FBF5E10A28AB
:102960000DD208EB400000F2FE21B0F8FE020A8B07
:102970001018488080B2504401F03DFDDEE704208D
:10298000A074E0E1FFF76DF9DFE1FFF71EFADCE18B
:10299000FFF736FAD9E10D2058E10D205AE1FFF793
:1029A00062FAD2E1FFF78BFACFE1A07E52E1FFF7A6
:1029B00099FACAE1E07E8EEA0000E076AEF101000D
:1029C000C0B20428DDD240F2BF20BDE1FFF7CBFA50
:1029D000BBE1E07E7045D4D101F029F8012110203F
:1029E000FFF731F80020E076012001F09AFBE07E4D
:1029F00080F00100FFF7B3FA00206084E07C18B992
:102A0000207C00F0FE00207400F0C6FA012240F2A3
:102A10002551DFF8CC0901F0ABFE01202075002024
:102A20006076F070E08490E1E17E7145A9D10128E3
:102A30000BD102211120FFF706F800F0C0F900F0D9
:102A4000AFF9E07E617C4840F9E0022899D1072186
:102A50001120FEF7F8FF00F0B2F900F0A1F9E07ED6
:102A6000617C4840E07600260020012709EB400108
:102A700091F8611119B107FA00F10E43F6B2401C4A
:102A80000728F3DB00F089F900F07CF909EB40013D
:102A900091F8511100F06AF9F8DB00F07EF900F0CE
:102AA00071F909EB400191F8411100F05FF9F8DB91
:102AB00000F073F900F062F90026002509EB4500EB
:102AC00090F8310118B107FA05F00643F6B26D1C13
:102AD000082DF3DB00F061F9E07E704000F074F93E
:102AE000E07EACE0E07E704529D102211220FEF7A5
:102AF000AAFF0020E076C92001F013FBE07E80F001
:102B0000C90000F061F9E07E99E0E07E704516D1E1
:102B100004211320FEF797FF0020E07601F001FB6F
:102B200000F053F900F051F9E07E00F04DF9FFF7A5
:102B300017FA3078002802D1232002F049F802E188
:102B4000E07E8EEA0000E076FAE0E17E7145F6D1A3
:102B500001212176072804D16175217C01F0FB0158
:102B6000217400216184E17D002901D102F030F857
:102B7000EBE0E07E8EEA0000E076BEF1240FDED2CC
:102B8000DEE0E07E7045DAD101211520FEF75BFF23
:102B900000F010F9E07EA97950E0E07E8EEA0000B6
:102BA000E076BEF1040FCAD2CAE0E27E7245C6D119
:102BB000012810D1C8071AD50020E077D8F85C02A8
:102BC00001F019FC00F0E4F8FFF7D8F8FFF7D9F8A6
:102BD00001F069F80BE0022809D1002084F82000F8
:102BE00001F0F4FB504601F04BFCFFF7CAF800F08F
:102BF000DEF801211F20FEF726FF00F0DBF8E07E63
:102C0000A9791BE0012021E0FFF7D1F89DE0E07EEB
:102C1000704516D102215A20FEF715FF0020E076FC
:102C20007888000A01F07DFA7888E17E91EA102127
:102C3000E176C0B201F075FAE07E79884840FFF78E
:102C40008EF980E0FEF720FF7FE00220FFF79CF87E
:102C50007BE00220FFF7F7F877E0E27E724572D161
:102C60000E466D7900EB0520788002215B20FEF78F
:102C7000EAFE0020E076284601F053FAE07E684044
:102C8000E076BD78284601F04CFAFFF766F97888BF
:102C900006F0010100F0010282F0010211420CD0A5
:102CA00001F094FBDFF8D80A01F0EAFBFFF769F8BE
:102CB000FFF767F800F0F7FF08E0C00706D500202F
:102CC00088F8010001F098FC88F801B000F06FF876
:102CD00039E00020A08442F2D10035E04FEA0E2016
:102CE00010802DE010884EEA00001080DFF8941A62
:102CF000142802D30880012008E000200880012069
:102D000002F0DAF8002002F007F9002002F0D4F80F
:102D100016E00020A08413E0FFF7D2F815E0BEF122
:102D2000010F05D1012088F8500302F0E4F805E016
:102D3000BEF1000F04D1002088F8500300F037F8EE
:102D4000608C401C00E00020608440F26571734894
:102D5000BDE8F44F01F03DBDBDE8F18F5A1F0020E2
:102D6000100C0140D41C00201409002019B107FAEE
:102D700000F10E43F6B2401C08287047E07E704018
:102D8000E0767047E07E7040E076002600207047D5
:102D900002214FF6FF7001F0D6BB304601F0C1B9F9
:102DA000E07EA17C4840E076607C01F0BAB9012069
:102DB00001F022BC0020E076A87901F0B2B9002031
:102DC000E076A07C01F0ADB9E076002001F0A9B971
:102DD000DFF8B409017A491C49B2032902DB00215A
:102DE0000122C2710172818D4A1C82856F4992B2A3
:102DF000642A38D3DFF8602C136883F4805313609F
:102E000000228285C28D12B1C28D521EC2858A7F78
:102E1000521C8A77D2B23C2A25D300228A77028EAE
:102E200012B1028E521E02860A8D42F20F739A422E
:102E30001EBF0A8D41F25C139A4204D00A8D12B172
:102E40000A8D521E0A858278521C8270D2B23C2AA8
:102E500009D300228270C278521CC270D2B2182AE2
:102E600024BF0022C270488C704710B5DFF8EC4BCD
:102E70000121204600F0E0FF0021204600F0D8FFAD
:102E8000BDE81040A4E70000140C014038B5474CE1
:102E9000608C002841D1DFF8CC0BC078DFF8E8184F
:102EA000497829B907281EBF3128617C042934D10B
:102EB000E17D71B30021E1756176010021D0411EF1
:102EC000292909D92A391AD0891F18D0491E06D0B4
:102ED000091F092915D912E0E16F91B90FE0414DA1
:102EE000B5F8320340F00100A5F832030020687005
:102EF00001F082FBFF206870FFF759FF01E000F04E
:102F0000BDFD207E08B100202076BDE8314001F0F3
:102F10003FBE25480168491C016031BD00380140B1
:102F20002DE9F04700F038F8DFF83C9BDFF83C5B18
:102F3000DFF83C6BDFF83CABDFF87882DFF8204B42
:102F4000FF20A0740027062000FB0780807BF0B1E3
:102F5000384601F0ECF9B0F5DE7F0DD10B20A074FE
:102F6000384601F0E4F9B0F5DE7F05D19AF90000AA
:102F700000280CBFB85D785D022838BF012002D35D
:102F8000FE2828BFFE2007EB87014944C8717F1C3B
:102F90001F2FD8DBBDE8F087012240F22551DFF872
:102FA000AC0C01F0E5BB0000781F00200000002001
:102FB00030B5DFF8AC0AFF2181740021DFF8A82AC0
:102FC0007C4B062404FB0134A47B34B101EB810467
:102FD000A41800EB41052D8EE571491C1F29F0DB7B
:102FE00030BD0000EC0D0020C01E0020391D002067
:102FF000F0B570490870DFF8680A826F921C82672A
:1030000012F8013B4B60826712F8014B03EB04237B
:103010004B608267521C8267521E12780A72826F5E
:1030200012F8013B8B81826712F8013B4B8182676A
:1030300012F8014B03EB04234B8182670025DFF874
:103040002C2ADFF8343A062404FB05160027B77350
:10305000F77337747774B774F774DFF8D46CEF18BC
:1030600097F8607015F802C0A7EB0C0706EB450C4B
:10307000ACF83470AF194FF0FF0C87F80CC06D1C22
:103080001F2DE1DB0025876F22E005EB060C17F80A
:1030900001EB8CF80CE0F44604FB0C1C4FF0010E25
:1030A0008CF80EE017F801EB8CF80FE017F801EB45
:1030B0008CF810E017F801EB8CF811E017F801EB31
:1030C0008CF812E017F801EB8CF813E06D1CEDB2F0
:1030D000B1F80CC06545D8DB8767002004FB0015FC
:1030E000AD7B3DB1C51895F86050875CED1B06EBD4
:1030F0004007BD86401C1F28F0DBF0BD2DE9F047DE
:10310000DFF85C49A06F10F8011BDFF85C5969809B
:10311000A06710F8012B01EB02216980A06710F86D
:10312000011BA980A06710F8012B01EB0221A980E7
:10313000A0670020DFF8181B002300EB8002521963
:103140009371D37113725372937241F82030401C03
:103150001F28F2DB0026DFF8FCAADFF8588023E006
:10316000DFF82406301890F80C9009EB8900471915
:103170000120B87100F024F8F87100F021F83872DD
:1031800000F01EF8787200F01BF8B872F979484622
:10319000FEF740FCF871397A4846FEF73BFC38727E
:1031A0002AF81600761CB6B2B8F80C008642D7DBB7
:1031B000BDE8F0874014002000800008E61E0020D3
:1031C000A06F401CA067401E007870472DE9F843AF
:1031D000DFF8B49599F9041001295DD0DFF888581B
:1031E00068800A214843A880002000EB800149192B
:1031F00001228A7100220A7201224A7200228A7216
:10320000401C1F28F1DB0027DFF8288BDFF850680F
:1032100020E0B06F00EB87008179062918D007EB1A
:103220000901097B01EB81014C190121A17101798F
:10323000217200216172C079A07206EB4700008EF6
:10324000E07107EB87004019017A00F0D6F920728F
:103250007F1CBFB2B8F80C008742DADBFEF788FBB0
:10326000FEF757FBDFF81C55F07CA8B199F9050073
:10327000012802BF99F906000128FEF70CFB012086
:1032800001F0B0FA02F082F902F042F8288801F069
:1032900043FE707D0128E7D1BDE8F1832DE9F84FA9
:1032A00082460AF206050226DFF88CBADFF88C8A1D
:1032B000DFF88C9A00240620DFF8781A00FB041748
:1032C000DFF8800A007D30B1172C18BF182C02D10E
:1032D0000020B87319E0B87BB8B1BAF1000F02D082
:1032E0002878062804D03A7CF97BE0B200F0F6FF9B
:1032F000F87B29F81400387C28F8140000202BF8FB
:1033000014002D1D012002F033FB641C1F2CD2DBA6
:10331000761ECFD1BDE8F18F2DE9F84FDFF8404799
:10332000608D401C6085DFF8285A00202870DFF887
:10333000248ADFF824BA2E78B14609EB8900DFF839
:1033400028174018217D012906D1172E18BF182EE5
:1033500002D10021817123E0817909B390F809A09D
:10336000BAF1050F14D23BF81970B4F92A0000F035
:1033700067FDDFF8E81901EB8901D1F8801000F052
:1033800089FD00F0FFFCC01987B204EB49000786F5
:1033900098F9000020B9FAB25146304601F058FAC7
:1033A0002878401C2870C0B21F28C4D3BDE8F18F14
:1033B00070B5DFF89449207868B10025DFF88C6992
:1033C00003E0A85D00F096FE6D1C20782DB28542CA
:1033D000F7DB0020207070BD0070FFF7C8000020F0
:1033E000004800402DE9FE4F042840F00381DFF83B
:1033F00044991F20A9F80C00DFF86459DFF88863AE
:103400000C9C14B9DFF864060EE0DFF86406012CAA
:103410000AD0022C08BF05F1400005D0032C0CBFD8
:1034200005F16000642C00D17067042089F8080061
:103430000120A9F80A000020002209EB400181F8D0
:103440003121401C1F28F8DB0120707000274FF04D
:10345000060ADFF80C8629E07A5DCA737A1992F8B9
:1034600020200A7400224A748A74DFF8001617F8C4
:1034700001B0DFF80416791891F86010A1EB0B0188
:1034800006EB47029186DFF8EC1591F9001021B99F
:1034900000F0B2F808EB47010886594600F0ADF895
:1034A000DFF8B01721F81700781C87B2B9F80C00C4
:1034B000874211DA0AFB0791706F3A5C002A19BF44
:1034C0003A5CFF2A00228A7301228A73642CC3D1DA
:1034D0000A22CA730522C4E70020FFF7DFFE00209E
:1034E000FFF7DCFE0020DFF85018DFF85028DFF887
:1034F00050380AFB0094A47B54B1445D23F810407B
:10350000441994F8204022F81040002421F810407B
:10351000401C1F28EDDBFF2488F812400020DFF854
:1035200048550AFB00918A7B02B1012200EB800121
:1035300049198A71401C1F28F3DBDFF8380590F920
:10354000000010B9FFF7ECFC01E0FFF731FD0027A8
:103550001BE00AFB0790807BB0B107EB870000EB14
:10356000050B706F00F048F88BF808009DF8080014
:103570008BF8090001208BF80A002820DFF8E417F7
:1035800000FB0710012181847F1CB9F80C008742E1
:10359000DFDBBDF800006880BDF80400A88088F873
:1035A0001240FEF7E5F9FEF7B4F9DFF8A04640F265
:1035B000255500222946204601F0DAF896F9050043
:1035C000012802BF16F90A000128FEF764F901205C
:1035D00001F008F998F8150001281CBF98F81300AD
:1035E0000028EBD101222946204603B0BDE8F04F68
:1035F00001F0BEB8BDE8F78F395C38B2FEF70ABA01
:1036000080B5DFF85C040121417500218175C1742A
:10361000DFF8201700224A81017C01F0FB010174D0
:10362000FFF7BAFCBDE8014001F090BD2DE9F84F6D
:10363000060020D0DFF828440020A067DFF8380417
:1036400090F83013B14229D30121A17500EB460057
:10365000B0F85E02400000F1006010F51040A06775
:1036600009D00178407801EB002080B200281CBF0F
:103670004FF6FF7188427BD040F2255A002200F0BD
:1036800079F83046FFF7B4FC607C04281EBFDFF8F1
:10369000A416097A814202D00520A07468E0A06FC8
:1036A000FFF7FCFDFF20A0746420FFF78FFD0027CB
:1036B000DFF8B063DFF8D0B0DFF8C880DFF89896A5
:1036C000DFF8A45300E07F1CDFF868064089BFB232
:1036D000874248D2E785FFF711FDE08D68B900EB1E
:1036E000800149198A792AB1C97929F8101004EBA7
:1036F00040021186401C1F28F1D368884FF6FF71E5
:10370000884204BF4FF6FE706880FEF731F9FEF77D
:1037100000F9E07C0028D6D001F0FAFD01F036FF78
:10372000012001F05FF8B8F8000001F0F5FB9BF90B
:10373000070008B100F048FE9BF8000068B9E07D82
:1037400058B10020E07501F027FA30B1F078072871
:1037500018BF1C2818BF312802D0607D0128D8D19D
:10376000BDE8F14F4CE7012200F004F80020A075FD
:10377000BDE8F18F5146DFF8D40400F0F9BF000036
:1037800000900008D2000020601B002010B5044605
:10379000FF2002F029FAE02002F026FA002002F0D1
:1037A00023FA204602F020FA84F0600000F07F0047
:1037B000BDE8104002F018BA000000002DE9F84FF3
:1037C000DFF86C45012020710020DFF86815012327
:1037D000062202FB00129373401C1F28F8DBDFF85F
:1037E0008805037000F023F94FF4487002F0C0F828
:1037F000F4220A2100F01DF99F4D0CE081F802A08F
:10380000C878401EC87000F017F900F037F9F422AC
:103810000A2100F00EF920780028FCD19048C07DE4
:103820000028F8D08E480021C17501F0B5F90028B4
:10383000F1D000F0FCF88B48C078312812D1FFF7A6
:10384000B6FA072000F01AF9F4220A2100F0F1F884
:103850004FF4487002F08CF800F0E9F80020207175
:10386000BDE8F18F05F16001CB785A1E5B1C8F79A2
:103870007E1C7F1E91F804C0ACF1010E0CF1010812
:1038800091F802C0ACF101090CF1010A95F860B0A1
:103890002B381328B7D8DFE800F00C677177848ADB
:1038A0000B98A5AAAFB6B8B8BAC0C0C50A0AA5E7B2
:1038B000A9E700F00CFD00F00AFD40F6B83002F078
:1038C00057F801F0A5F80026304600F030FDB0F5BD
:1038D000DE7F09D00228B8BF012002DBFE2828BF06
:1038E000FE20711981F860005D4800EB46007119F7
:1038F00091F860100186761C1F2EE5DB00F09CF825
:1039000000F07AFEDFF860040121017000200090D1
:1039100004234FF4FA6200F0A3F90020009004237E
:103920004FF4FA72142100F098F90020009002235D
:103930004FF41672142100F094F900200090034611
:103940004FF4FA72142100F08CF900200090022349
:103950004FF47A7200F084F9F4220A2100F069F839
:10396000642002F005F84EE700F0C8FCF4220A21BA
:1039700000F05FF8012000F081F844E781F802A030
:1039800081F804E08F713EE781F802A081F804E03D
:103990008F71CA704879401C4871C879401CC87141
:1039A00031E7CA704879401C48718E712BE7ABF142
:1039B000010085F860004878401E4870087A401E73
:1039C0000872487A401E48721DE70BF1010085F825
:1039D00060004878401C4870087A401C0872487A99
:1039E000401CF0E781F8029081F80480DDE781F85F
:1039F000029081F804808E71CB704879401E487126
:103A0000C879401ECBE78E71FAE78F71C5E781F860
:103A100004E04879401C4871F5E681F80480487953
:103A2000401EF8E781F80290C878401CEAE6F422CC
:103A30000C21022002F0AEBB0020411991F8601069
:103A40000A4A825C891A04EB40029186401C1F28B6
:103A5000F3DB0120704700000C0C01400004004023
:103A600000000020CC0000201819002078800008F9
:103A700098800008891F0020EC0D00202DE9F84FE8
:103A80000646FFF783FEB34890F90000012818BFEF
:103A9000002E11D0AB4FB87D002804BFF87C002861
:103AA0000BD0072E08D1012078750020B875F87466
:103AB000387C00F0FB003874C6E040F6B834AA4DFC
:103AC000DFF8A8A2DFF8A8B2DFF8A88240F22559F3
:103AD000072E4FD100F0D2F800F0CBF800F0C4F878
:103AE0000520388595F90000012810D1FFF79FFFC8
:103AF0000020009000232246642100F0B2F800F07C
:103B0000CCF8192100F0ADF84FF47A701FE00021D5
:103B1000002001F0F4FBFFF78AFF642000900423EB
:103B20004FF4FA6200F098F8012028700090042306
:103B30004FF47A7200F090F8072001F0ABFE01F02C
:103B400005FB00F0AAF800F08BF84FF4FA6001F0E2
:103B50000FFFF4220721FFF76CFF0120287001F00E
:103B6000B1F900F095F800F08EF801224946504670
:103B700000F0FEFD95F9000020B9312E64D1BDE8BA
:103B8000F14F1BE6312E08D1FFF718FEA6F1080011
:103B9000C0B214284ED2701E52E0152E18BF212E2E
:103BA00044D1FFF744FF4FF4967001F0E1FEF42298
:103BB0000A21FFF73EFF4FF4967001F0D9FEF42280
:103BC0000821FFF736FF00F059F8204E0022494641
:103BD000304600F0CDFD00F04CF800F045F84FF411
:103BE0000041032001F08BFB092001F053FE01F09E
:103BF000ADFA002028704FF47A7001F0B9FE00F0A1
:103C000066FB00F064FB204601F0B2FE00F040F8D5
:103C100001224946304600F0ABFD00F034F80122A5
:103C200049465046BDE8F84F00F0A2BD072EADD280
:103C3000304606E0A6F11D00C0B20E2804D2B01E28
:103C4000C0B2BDE8F24FF1E4BDE8F18F004400409E
:103C5000DC1B0020581E002032211846FFF7C2BB93
:103C600032210420FFF7BEBB00224946504600F037
:103C70007FBD00224946584600F07ABD00224946E1
:103C8000404600F075BD01224946584600F070BD1F
:103C900001224946404600F06BBD002000900223FF
:103CA0004FF4FA7270472748012141750021817550
:103CB000C174017C01F0FB0101742F4A02F54C71C3
:103CC0008B78DB0700D57047F0B52C4BC2F85C321F
:103CD0001D46002302EB43042E786F7806EB07267F
:103CE000A4F8B062B4F8B062002E1CBF4FF6FF77A4
:103CF000BE4203D10025A4F8B0520BE0204E761945
:103D00007608A4F86062B4F8B04205EB44055B1C89
:103D1000282BDFDB82F83033C27F9342B8BFC377F2
:103D20002BB14888C2075CBF40F001004880F0BD5D
:103D3000601B002040140020D81D0020201B002004
:103D4000E01A002000000020851F0020B01600208F
:103D5000871F0020391D0020981D0020B415002069
:103D6000687E000814090020891F0020004C0040D4
:103D70000048004000380140EC0D00200090000891
:103D80000070FFF730B5044600F080F905B2284610
:103D900000F056F802462046002100F065F909D8E7
:103DA000114602F0F9F94FF07C5100F05DF90DD8A1
:103DB000681C09E01046214602F0EEF94FF07C51F4
:103DC00000F052F902D8681E00B230BD284630BD5E
:103DD00010B5028802F08F0202800288CB884C88DE
:103DE00023431A4302808A8882850A880285012239
:103DF0008282044A904219BF034A9042097A01869E
:103E000010BD0000002C0140003401400029018851
:103E100012BF41F0010140F2FE32114001807047B3
:103E2000002A828914BF114322EA0101818170476F
:103E3000818470478185704700BFC9430182704704
:103E4000002840F10980F446404200F005F850F0A7
:103E500000406047002800BF0AD0B0FA80F18840D7
:103E6000D1F19D01C905020672F1004241EB10201B
:103E7000704750F8041B61B150F8042BD30744BFBE
:103E8000A9F101039A18002342F8043B091FFAD153
:103E9000EFE77047FF2212EAD05C1DBF12EAD15350
:103EA000944593422BE09C44D30780EA01021A40D8
:103EB00043EA002043EA0121A1FB0030410038BF62
:103EC00040007CF17F010BDBFE294ADA5B0842EA05
:103ED000C15153EA006373F1004C51EB102070475D
:103EE000D1F1080CDCF120012FDB5B0810FA01F1A5
:103EF0000B4373F1004120FA0CF050417047944598
:103F00001CBF02EAD153934280EA010202F0004250
:103F10001DD0400019D0490017D05BB9634514D0BB
:103F20000902B1FA81F39940BCEB030CC00140F0E7
:103F30000040C1E70002B0FA80FC10FA0CF0B3EBCD
:103F40000C0CC90141F00041B6E710007047400079
:103F50000AD0490008D010F1807F94BF11F1807F12
:103F600002E042F0FF407047D043704710B5FF2396
:103F700013EAD0541DBF13EAD1529C429A4239E051
:103F8000A41ADA0780EA0103134042EA012142EA57
:103F90000020421A3CBF641E01EB4202090AB2FB38
:103FA000F1FE01FB1E221202B2FBF1F001FB102216
:103FB0006EF30F201202B2FBF1FE4EEA00207F34B6
:103FC00006DDFE2C24DA53EA500050EBC45010BD3D
:103FD000D4F1020401FB1E2240F08071192C1DDC7B
:103FE00021FA04F0C4F12004A140114371F1004210
:103FF000584110BD9C421ABF03EAD1529A420FE0C9
:1040000080EA010E0EF00043400004D0490016D1B2
:1040100043F0FF4010BD490008BFD343180010BD56
:104020009C4205D1D21AF7D001F00041484010BDA2
:104030004A0212BF0846484000F0004010BD4AB98D
:104040000902B1FA81F2914044B1A418C00140F0D4
:1040500000409EE7C90141F0004152420002B0FA1F
:1040600080F4A040141B94E74FF0807C1CEB400FC1
:1040700094BF1CEB410F05E040EA010C5FEA4C0CD9
:1040800001D28142704718BF884270474100090E33
:104090007F3915D4D1F11F0114D4400007D2C001DB
:1040A00040F00040C84048BF6FF000407047C0017A
:1040B00040F00040C8404CBF4FF0004040427047C5
:1040C0000020704700424FF0004058BFC043704787
:1040D0004FF0807C1CEB400F94BF1CEB410F05E0C0
:1040E00040EA010C5FEA4C0C01D28842704718BFCD
:1040F0008142704710B5DFF89C120A6842F0400216
:104100000A60DFF89442616841F400416160014651
:10411000DFF8880200F044FB206840F40040206093
:1041200010BD0146DFF8780200F03ABB10B5DFF8A9
:104130006402416841F040014160DFF868120022EA
:104140000A800A88DFF860321C78022C06D20C88BC
:10415000A41A042CF8DB4FF4DE7010BD016841F0A6
:1041600040010160012010BDF8B506460F468A4C9B
:10417000606840F400406060864D286840F0400070
:104180002860FF20FFF7B6FF3046FFF7B3FF384641
:10419000FFF7B0FF87EA060000F031F8206840F42E
:1041A00000402060686840F040006860F1BD2DE983
:1041B000F843884615461E4640F0E00900F053F8E3
:1041C000754F786840F400407860FF20FFF792FF59
:1041D0004846FFF78FFF4046FFF78CFF2846FFF762
:1041E00089FF3046FFF786FF88EA09006840704083
:1041F00000F005F8386840F4004038602DE000F029
:104200007F0077E72DE9F8438046894616461F462A
:1042100000F029F8604D686840F400406860FF20B5
:10422000FFF768FFE020FFF765FF4046FFF762FFFA
:104230004846FFF75FFF3046FFF75CFF3846FFF761
:1042400059FF89EA08007040784080F06000FFF76D
:10425000D6FF286840F400402860606840F04000C5
:104260006060BDE8F1834B4C206840F04000206066
:10427000704770B54D4A1478631C13704C4BFF2582
:1042800000F020F8E02500F01DF8C82500F01AF82D
:10429000E0541478651C1570CD09E5541478661C3B
:1042A000167001F07F06E6541478661C167068409C
:1042B000484080F0280000F07F00E054BDE87040E6
:1042C000FFF776B8E5541478651C1570704780B513
:1042D0002021DF20FFF748FF012002BD13460A46D8
:1042E0000B2164E701F07F034A04120E0146B1205E
:1042F00088E713460A460146AE2083E7F8B5002456
:104300002D4D2E4E2E4F37F81410E0B2FFF7EAFF76
:104310000A2001F02DFBA25D615DE0B2FFF7E9FF2D
:104320000A2001F025FB641C1F2CECDBF1BD38B525
:1043300000F027F800F010F8C0B2FFF715FF00F00A
:1043400016F8B0F5DE7F06D0022001F00DFB19480B
:10435000C07BC01C80B232BDA0894FF6FB71084003
:10436000A08111480021017045F0A0007047154858
:10437000016841F040010160A08940F00400A08183
:10438000D4E60546054C012240F22551204600F0B6
:10439000EFB9000010100140100C01400044004033
:1043A000003801408C1B0020581F0020851F002072
:1043B000B0160020481F0020687E0008887E000894
:1043C000E47F00081410014070470000DFF8E802A5
:1043D000017879B10178491E01700021DFF8DC22F3
:1043E0004FF0FF3342F82130491CB1F5007FF9D37B
:1043F000002141807047F0B5B0F1006F22BFDFF8B7
:10440000B8124A68824204D34205520D801A0B78D2
:104410000BB90220F0BD0B785B1E0B70064600271F
:10442000DFF8983204E056F8047B43F825702746FD
:10443000541002EB94744FEAA40C7C1CBFB23D46AE
:104440006545F0DBB2EB8C0C12D036686FF0FF07DD
:10445000ACF1010C4FEACC0C07FA0CF73E4343F8E1
:104460002560274604E04FF0FF3443F827407F1CC7
:10447000BFB2B7F5007FF6D388604A800420F0BD54
:104480002DE9F04105008C4C08BFA568B5F1006F1F
:1044900024BF6068A84201D3680501D0022034E03F
:1044A00001F0FEFE284601F007FF0646042E08D064
:1044B00000F05CF801F0FAFE2078401C20703046D5
:1044C00023E02E460027DFF8F48158F82710304605
:1044D00001F010FF361D042807D000F047F801F066
:1044E000E5FE2078401C2070D8E77F1CBFB2B7F5EE
:1044F000007FEAD301F0DAFE2078401C2070A5602E
:10450000A06800F50060A0600420BDE8F08138B527
:10451000694C6188B1F5006F14D36188A1F500651D
:10452000ADB2FFF7ADFFFFF751FF0020634904E094
:10453000421892F800284254401CA842F8DB6088D8
:104540002818608031BD70B5032928BF0221FFE71C
:1045500000225A4B584C05E065886E1C6680E85472
:10456000000A521CD2B28A42F6D370BD342001F048
:10457000E2BE38B5524C534D5349D1F84C03534A1F
:10458000904204BF087806282BD1687808B948788B
:1045900048B94FF48062204601F008FF68786178DE
:1045A000884228D01BE028682060486860608868DE
:1045B000A060C868E0609022103104F1100001F0A2
:1045C000F5FE04F1A00005F1A001D82251F8043B4A
:1045D00040F8043B521EF9D1012000F00DF80020F4
:1045E00006E04FF480622946204601F0DFFE0120FC
:1045F000BDE8324000E031BD2DE9F041304DA84624
:10460000304E00283BD0304C2746002057F8041B82
:1046100058F8042B914203D1401C80B2D928F5D31D
:10462000D92808BF042044D0A84627466878F0B9A6
:104630000120687001F034FE204601F03DFE044682
:10464000042C05D0FFF792FF01F030FE204630E049
:10465000D92400F03DF83F1D04281CBF342001F090
:104660006AFE641EF5D101F021FEA84607E0401C59
:104670006870C0B2FF2803D10120687000E037469F
:1046800001F00EFE384601F017FE0546042802D060
:10469000FFF76CFF0AE0D92600F01AF83F1D042846
:1046A00002D0FFF763FF0225761EF5D101F0FEFD73
:1046B0002846BDE8F0810000C0000020D4000020A2
:1046C000EC0D002000080008001000087856341295
:1046D00058F8041B384601F00DBE000030B5044602
:1046E00085B00D46208A4CF6FF710840E9880843E2
:1046F00020824EF6F311A0890840A9880843298931
:10470000084369890843A0814FF6FF41A08A084009
:10471000A9890843A08200A801F0E7FE0E48844260
:104720000CBF039802981921484329688900B0FBFF
:10473000F1F06421B0FBF1F109010A09642303FBE4
:10474000120000013230B0FBF3F000F00F0008431C
:10475000208105B030BD000000380140002981896A
:1047600012BF41F400514DF6FF7211408181704734
:1047700010B50B065B0F012401F01F0104FA01F1D3
:10478000012B08BF0C3003D0022B0CBF10301430AB
:10479000002A026814BF114322EA0101016010BD22
:1047A00010B504462088C805C00DA08040212046D1
:1047B00000F007F80028F9D010BD8088C005C00DB2
:1047C000704700880022084218BF01221046704737
:1047D00004E00122090A02FA01F189B2C943018009
:1047E000704700002DE9F0410546DFF864430120E1
:1047F000207000272826DFF85C8306FB078090F9ED
:104800001C10012902D12178491C217090F91D004A
:10481000012804BF384600F0BFF87F1C1F2FECD3DF
:104820006088401C608080B285420FD30020608089
:10483000002506FB058090F91C00012803D1217892
:10484000284600F083F86D1C1F2DF2D3BDE8F081DF
:104850002DE9F84381460C469046282000FB09F6D6
:10486000BC4FF5194046FFF7F5FA6968FFF712FBF0
:1048700001F0C2FE01F0E8FE01F008FFF15B08184C
:1048800028820120287709EB8900B349401880F875
:104890000780B24820F819802046A98C814220D098
:1048A000A88444B1022C0CD008D3042C0CD038BFFF
:1048B0004FF4C8600AE040F6B83007E040F6FC006C
:1048C00004E040F26C7001E04FF4167000F07F03DA
:1048D0004204120E4946BA2001B0BDE8F043FFF78A
:1048E00091BCBDE8F18358B504460B4600F04FF883
:1048F000B06983F00041FFF7EBFB07D21046B168C7
:1049000001F04AFCF16801F0E7FE0CE01846B169DD
:10491000FFF7DEFB10D2B068114601F0DDFE014664
:10492000F06801F039FCF060FFF7B0FB81B220467F
:10493000BDE85440FFF79DBCF068FFF7A7FB81B2CC
:104940002046FFF796FC0020307751BDF8B50446AD
:104950000D4600F01CF8B6F91000FFF771FA014699
:10496000F06801F019FC0746B7614FF4FA6090FB5C
:10497000F5F0FFF765FA01463846FFF7F7FAB06041
:10498000774A4FF07E512046BDE8F840ABE728203B
:10499000704900FB041670472DE9F8438046282132
:1049A00001FB08F56B4EAC1994F91D1071B36D49FC
:1049B00001220A70FFF7BBFC0746B7F5DE7F23D064
:1049C0006948807BFFF7ADFBDFF8A09139F818004C
:1049D000381AC0B2FFF7A5FB39F91800381A80B2AF
:1049E000FFF738FA6168FFF755FA01F005FE01F0AC
:1049F0002BFE01F04BFE80B2A95F0818FFF720FAEA
:104A0000E060FFF743FB208200206077BDE8F18380
:104A10002DE9F84F4FF0020B4E4D4FF0000954486E
:104A2000FF2101704846FFF782FC0446514830F8E8
:104A30001900282101FB09F67719B0F5045F04D1AC
:104A40004D49796040F6166125E042F2A011884296
:104A500018BFB0F5B55F1AD0B0F5B05F04D14749C3
:104A6000796040F67B5116E0B0F5855F0FD0B0F568
:104A7000006F04D14249796040F66D410BE0B0F51A
:104A8000A04F04D13F49796040F6956103E03E496B
:104A9000796040F26B11715378840020B882B4F5CC
:104AA000DE7F1FD1394819F800A051460FFA89F06E
:104AB000FCF7B0FFFFF7CEF97968FFF7EBF901F0EB
:104AC0009BFD01F0C1FD04468846705F01F046FE83
:104AD0002246434601F058FE01F0CAFEF86087F80E
:104AE00016A019E0022CB8BF012402DBFE2CA8BFDF
:104AF000FE242046FFF7AEF97968FFF7CBF901F005
:104B00007BFD01F0A1FD01F0C1FD00B2715F08184D
:104B1000FFF796F9F860BC75002038777877B8848D
:104B2000F868FFF7B3FA7882F868FFF7AFFA3882CF
:104B30000020B87709F10109B9F11F0FFFF66FAF37
:104B4000BBF1010B7FF469AFBDE8F18F00000000FD
:104B5000741F0020140900201819002030000020C4
:104B6000CDCC4C3D841F0020481F0020941B00200A
:104B7000120000208000002017DBB542230DAE425A
:104B8000756BA042554BBC42D34D504198800008F4
:104B9000184800210160704710B500201549164AD9
:104BA00082180B7892F82040A34201BF20324B7844
:104BB000147AA34203D18B78127C934202D0401C1A
:104BC0000828ECDB082801DA012010BD002010BD08
:104BD0000849094A92F820300B702032137A4B7042
:104BE000127C8A70C8700248012101707047000071
:104BF00017000020CC000020EC0D002030B585B05F
:104C0000009000200190ADF80800ADF80C000C20D9
:104C1000ADF80A00DFF8E84340F2255501222946A5
:104C20002046FFF7A5FD00A92046FFF757FD00210C
:104C30002046FFF793FD40212046FFF7C9FD20885D
:104C4000A08829462046FFF7C4FD05B030BD10B549
:104C5000DFF8B0430020A06700F029F9A06D2A28F2
:104C600004BFE06D002833D101202070E06F401CAC
:104C7000E067206F401C2067DFF88C03E16801804B
:104C80002169418061698180A169C180E1690181F7
:104C9000216A4181616A8181A16AC181E16A0182DF
:104CA000216B4182616B8182A16BC182E16B0183C7
:104CB000216C4183616C8183A16CC183E16C0184AF
:104CC000216D4184DFF84403016881F48071016043
:104CD00010BD1CB5DFF8280301888188CC05E40DE0
:104CE00040F22551FFF775FDDFF81803C466816EA9
:104CF00041668466426FDFF81833242908BF3A2CD6
:104D000004D119603A215960022107E043F822409A
:104D1000511C172902D3002101228267416713BD6C
:104D200030B5DFF8F042DFF8F052DFF8F012082873
:104D300027D8DFE800F00507090B0E11171A1D0030
:104D4000086830BD486830BD886830BDB1F91200D0
:104D500004E0B1F9140001E0B1F91600FFF770F8B2
:104D600021460AE0B1F90C0004E0B1F90E0001E0BF
:104D7000B1F91000FFF764F82946BDE83040FFF7AD
:104D8000F5B8002030BD2DE9F0479E4CA06F0128FA
:104D900003D100F08CF8FFF75AFFE06F401CE0678A
:104DA00094F9000010B94FF0FF307EE0964DB5F950
:104DB0000000B5F9021041EA002699480680B5F9CD
:104DC0000410B5F9062042EA01274780B5F908101A
:104DD000B5F90A2042EA012AA0F804A0B5F90C109E
:104DE000B5F90E2042EA0121C180B5F91020B5F9CC
:104DF000123043EA02220281B5F91430B5F916C027
:104E00004CEA03234381B5F918C0B5F91AE04EEA1C
:104E10000C2CA0F80CC0B5F91CE0B5F91E8048EACE
:104E20000E2EA0F80EE0B5F92080B5F9225045EA23
:104E30000828A0F81080858AA6EB0509774DA5F80B
:104E40001890C68ABE1B6E83078BAAEB070AA5F8CB
:104E50001CA0478BC91B6982818B511AA982C18B07
:104E6000591AE982018CACEB0101A981418CAEEBAE
:104E70000101E981808CA8EB000028820A270FFA43
:104E800089F191FBF7F0FEF7DBFF286036B296FB65
:104E9000F7F0FEF7D5FF68600FFA8AF191FBF7F0A3
:104EA000FEF7CEFFA86000202070BDE8F0875C22EE
:104EB0005749201D01F07ABA012818BF002059492E
:104EC0000870704755480021016041608160816130
:104ED00081834161C160016170470020524901EB4B
:104EE0004002B2F852234E4B03EB40039A82401C1F
:104EF0000928F4DB704710B500204B49484A32F9C5
:104F0000103002EB4004A38201EB4004A4F85233BA
:104F1000401C0928F3DB10BD424991F9002002B979
:104F2000704710B54A68521C4A603C23584382427D
:104F30005EDB00F080F83A2000F05BFE3B4C2088FE
:104F4000000A00F056FE208800F053F800F070F8D8
:104F500000F06EF8092000F04CFE304CB4F9180057
:104F600000F04AF8208B00F044F8B4F91A0000F081
:104F700043F8608B00F03DF8B4F91C0000F03CF8F9
:104F8000A08B00F036F8B4F9120000F035F8608A12
:104F900000F02FF8B4F9140000F02EF8A08A00F009
:104FA00028F8B4F9160000F027F8E08A00F021F89C
:104FB000B4F90C0000F020F8A08900F01AF8B4F958
:104FC0000E0000F019F8E08900F013F8B4F91000B1
:104FD00000F012F8208A00F00CF8FF2000F009FE23
:104FE000AA2000F006FE0020BDE8104000F001BE3F
:104FF00010BDC0B200F0FDBD0004000E00F0F9BD10
:10500000004C0040601A00200C1F00200C0C0140D6
:105010004012002000401C4600002041581800208B
:10502000981E00206C1F0020EC0D0020421D002067
:10503000022000F0DEBD00204860242000F0D9BD31
:1050400080B532220121012001F076F832220121BF
:105050000846BDE8084001F06FB8000010B584B004
:105060004FF6FF70ADF8040041F21E30ADF80000BD
:105070000020ADF80200ADF806008DF80800DFF85A
:10508000704800A92046FEF7A3FE00F030F800218A
:105090002046FEF7BBFE1FBD38B50446DFF850586A
:1050A000A11E89B22846FEF7C3FE21462846FEF718
:1050B000C1FE01212846FEF7BFFE0122012128463C
:1050C000FEF7AEFE01212846BDE83440FEF79EBE45
:1050D00010B5DFF81C4800F00AF800212046FEF762
:1050E00095FE00212046BDE81040FEF7A1BE00223B
:1050F00001212046FEF794BE38B5DFF8F8570020AE
:10510000E870DFF8F447A889DFF8F017498888428B
:105110000AD30020A881FFF7DBFF0020A870606899
:1051200040F08000606031BD206880F08000206029
:10513000BDE8314080E080B50121DFF8B407FEF71B
:105140007BFEDFF8B0070121C17001BD80B504E02E
:1051500000F01CFA0120FFF745FBDFF8980790F9F3
:1051600001000028F4D101BD38B5DFF89047A088D0
:10517000FEF770FEDFF88817FEF78CFE05466088A4
:10518000FEF768FE01462846FEF7F0FE4FF08F411D
:10519000FEF76AFF94BF4FF6FF70FEF777FFDFF868
:1051A000641708800888BDE8324075E72DE9F047AC
:1051B0000024DFF85457DFF85487DFF85497DFF8FE
:1051C0003C67DFF8307704EB84008019817961B3A4
:1051D000C17907EB44021182027A29F81420407A3F
:1051E00091421DD0052820D2501AFEF729FE824692
:1051F0007088FEF72FFE01465046FEF7B7FE48F8CE
:105200002400DFF81017FEF72FFF98BFDFF808071C
:1052100009D92946FEF75CFF07D248F8245004E07C
:10522000052802D2002048F82400641C1F2CCADB89
:105230000020B881BDE8F0872DE9F041DFF8B456D1
:10524000A889401CA8810026DFF8C08606EB8600EE
:10525000DFF8A8164718B879A0B1787A05280CD2DB
:10526000A889FEF7F7FD58F82610FEF713FEFEF7A3
:1052700089FD05EB4601098A4418E2B2797AF0B259
:10528000FFF7E6FA761C1F2EE0DBBDE8F08138B5AB
:10529000022400250620DFF8841600FB0510817B20
:1052A00039B1027CC17BE8B2FFF718F8012000F0A9
:1052B0005FFB6D1C1F2DEDDB641EEAD131BDF8B51F
:1052C0000224DFF85C56DFF854660027062000FB56
:1052D0000760807B68B105EB4700B0F84020D2B290
:1052E00035F81710C9B2F8B2FEF7F8FF012000F048
:1052F0003FFB7F1C1F2FE9DB641EE6D1F1BDDFF809
:10530000F4250023D380D365536510815181704704
:10531000DFF8100690F8500300B97047F8B5FFF7B2
:1053200032FD10F1010F00F018810020FFF7F8FCAA
:1053300005460120FFF7F4FC0646DFF8B84528468D
:10534000216D00F029FFDFF8E015FEF7A3FDA06551
:105350002565E288218900294CD13046DFF8CC153B
:10536000FEF782FE04D800F0FDF80DD3402108E0DE
:10537000DFF8BC15FEF7ACFE08D200F0F3F803D35B
:1053800080210120FFF7BBFF00F0F0F8E2882846FB
:10539000DFF8A015FEF768FE04D800F0E3F80DD39F
:1053A000022108E0DFF89015FEF792FE08D200F027
:1053B000D9F803D301210120FFF7A1FF00F0D6F8AF
:1053C0006089012814D0022800F0B180042800F080
:1053D000B080082800F0B180102800F0B2802028AA
:1053E00000F0B380402818BF802800F0B280F1BDE3
:1053F0000020AFE001291FD1E16D4D1CE565616D15
:1054000001F06AF960650A2DDAD36189012908D1B2
:105410000021FEF75DFE0CD204210220FFF76FFF92
:10542000CEE7022905D10021FEF71EFE38BF082174
:10543000F3D300210020F1E7022919D12846DFF833
:10544000FC14FEF711FE06D8501CE080052AB7D3E5
:1054500020210320E2E7DFF8E814FEF739FE05D249
:10546000501CE080052AABD31021F2E70021D4E7DD
:10547000DFF8D064DFF8D074032925D128463946F7
:10548000FEF7F2FD07D8501CE080052A98D34FF4B0
:1054900000410420C2E7DFF8B414FEF719FEF2D38E
:1054A0004FF400410320FFF72AFFFFF74FFEFEF7FE
:1054B000A7F800F066F800F05EF8FEF708FF4FF47A
:1054C000FA6000F055FA7BE70429FCD100F046F8B9
:1054D000FEF796F800F055F800F04DF8FEF7F7FEED
:1054E0000A24FFF750FC0020FFF71AFC3946FEF7AC
:1054F000BBFD99BFF4220721F4220121022000F014
:1055000049FE641EEDD100F029F8082000F0C2F930
:10551000FFF71CFEFEF774F84FF4FA6000F028FA6B
:1055200000210020FFF7EBFE01203070F1BD0120CB
:1055300010E00020607002200CE00020607003206A
:1055400008E000206070042004E000206070052066
:1055500000E00620BDE8F2409CE1F1BD4FF40041BF
:105560000420CCE6501CE080052A7047F42201217B
:10557000022000F00FBE0020A07060702070FEF7C7
:10558000A6BE002030702081A081A1E52DE9F84F52
:10559000DFF86043A68894F90100002808D094F948
:1055A0000300012808BFFFF7A7FD94F902000128B6
:1055B00000F04B81A088DFF864134989884280F0AD
:1055C0003B81DFF838532E80DFF884B30BEB860085
:1055D00000F6AC41E28922B9D0F8AC0C6880C8680A
:1055E00044E0012A03D188696880486A3EE0022AC3
:1055F00005D1D0F8DC1C6980D0F8EC0C36E0032A29
:1056000005D1D0F8FC1C6980D0F8100D2EE0042ADA
:1056100005D1D0F8241D6980D0F8380D26E0052A80
:1056200005D100F6385041696980806A1EE0062A7B
:1056300005D1D0F8741D6980D0F8840D16E0072AD2
:1056400005D1D0F8941D6980D0F8AC0D0EE0082A81
:1056500005D1D0F8EC1D6980D0F8300E06E0092A9B
:1056600005D1D0F8C41D6980D0F8D80DA8800027D6
:105670001A2000FB06F808EB0B0908EB0B0A0AE0FE
:10568000092807D107EB090090F87E1438B2FCF71F
:10569000C1F930727F1CA1488089874280F2C080A6
:1056A00007EB870046190120B071A08820B9A948EE
:1056B00030F81700F07166E0E08940B917F80A1079
:1056C00038B2FCF7A7F9F0710BF2D46058E001286A
:1056D00007D10BF1680000F0BAF8F0710BF22470FA
:1056E0004EE0022807D10BF1D00000F0B0F8F071C5
:1056F0000BF2747044E0032807D10BF5AA7000F098
:10570000A6F8F0710BF2DC703AE0042807D10BF533
:10571000F87000F09CF8F0710BF5066030E0052899
:1057200007D10BF5237000F092F8F0710BF6E4004E
:1057300026E0062807D10BF54A7000F088F8F071D2
:105740000BF668101CE0072807D10BF56B7000F012
:105750007EF8F0710BF51D6012E0082807D10BF5FB
:10576000A06000F074F8F0710BF52F6008E00928D4
:1057700009D10BF2644000F06AF8F0710BF66C206E
:105780004044385C7072A08864494989491E884247
:1057900007D16089B0F5004F03D06F4830F817008B
:1057A00077E7E08918B907EB0A00817E6EE70128E8
:1057B00004D107EB0A0090F8821067E7022804D1B1
:1057C00007EB090090F8EA1060E7032804D107EB23
:1057D000090090F86E1159E7042804D107EB09007D
:1057E00090F80A1252E7052804D107EB090090F857
:1057F000A6124BE7062804D107EB090090F84213E4
:1058000044E7072804D107EB090090F8C6133DE7E9
:1058100008287FF435AF07EB090090F81A1535E733
:10582000FFF7A2FCFFF7C2FC0020A081A088401C6B
:10583000A0800120A07008E000206070E07020705F
:10584000FFF73DFD002060812081BDE8F18F4044DD
:10585000395C38B2FCF7DEB870B5304D6881A9818B
:10586000244C0020A0800BE0062101FB0051012602
:105870008E73865CCE73C65C0E7400264E74401C1C
:10588000A9898842F0DBFFF702FD0120607000204B
:10589000A07070BD174991F90120012A26D0C88156
:1058A0002E4A2F4B2F49092820D8DFE800F00505A4
:1058B000081C1C1C080B11181A21032015E01A21C2
:1058C000042012E001F11C030A461A2106200CE014
:1058D00001F18C0301F170021A21112005E001F1A0
:1058E000540301F138021A210520B5E77047000082
:1058F00000080040381D00200C100140BC19002099
:10590000CDCC6C41801F002000007DC3581C0020BE
:10591000181E002001007D4300007D438C170020ED
:10592000E01A0020EC0D0020000020410100504151
:10593000000050C101004041000040C10100A041F1
:105940000000A0C1891F002001003442000034C2C1
:105950005C6D000830000020581E0020687E0008A2
:10596000887E0008187D000810B50446092003E071
:1059700010B5044642F2283000F0C2FF012000F0CA
:10598000D4FF012000F0BFFF8E48046001680029A9
:10599000FCD1002000F0C9FF6FF0010000F0B3FF60
:1059A0000020BDE8104000F0AEBF8648016811B18C
:1059B0000168491E0160704710B500F023F800F03F
:1059C0005EF8814800F0C0FF804800F0BDFF8048CD
:1059D00000F0BAFF7F4800F0B7FF00F0C0F800F019
:1059E00009FB4FF4E13000F05EFB7B4C204600F0F9
:1059F00060FB4FF4612000F082FB2046BDE81040C0
:105A0000FFF7FCB880B500F0FDFC4FF4803000F0EB
:105A100011FD00F028FD71490870012824D11020E3
:105A200000F039FC022000F02BFC002000F049FDC2
:105A3000002000F052FD4FF4806000F047FD4FF46D
:105A4000E0114FF4803000F025FD012000F02AFD28
:105A5000392000F0A2FD0028FAD0022000F025FD38
:105A600000F02AFD0828FBD1012144F21D0000F0BE
:105A700079FD01215A48BDE8044000F07CBD80B5A5
:105A800000214FF0006001F05EF84FF4C06001F0BB
:105A900015F801208DF803001C208DF8000000206F
:105AA0008DF80100012000F02DF81D208DF8000078
:105AB00000A801F008F81E208DF80000002000F07A
:105AC0001FF825208DF80000012000F019F826208D
:105AD00000F010F8022000F015F8342000F00AF869
:105AE000002000F00FF8272000F004F8032000F059
:105AF00009F801BD8DF8000001208DF80100704704
:105B00008DF801008DF8020000A800F0DCBF10B590
:105B100084B04720ADF800000020ADF8020042F24A
:105B20001070ADF804000020ADF806008DF80800F4
:105B30002C4C00A92046FEF74BF9012201212046FA
:105B4000FEF76EF901212046FEF760F9012120469B
:105B5000FEF772F900212046FEF76AF91FBD38B53D
:105B600010208DF8030003208DF802004FF45340FD
:105B7000ADF80000154C00A9204600F032FF80204F
:105B8000ADF80000124D00A9284600F02AFF286950
:105B900040F080002861206940F480402061206945
:105BA00040F400402061606940F4805060612069E9
:105BB00040F400702061206940F48070206131BDA4
:105BC000000000007C1F002000080140000C014084
:105BD000001001400014014060E316008A1F0020FD
:105BE00007000E00000400400146DFF8C803FEF77E
:105BF000D7BD10B504462146DFF8BC03FEF7D0FD43
:105C00002146DFF8B003BDE81040FEF7C9BDDFF85C
:105C1000AC0300210184818B491C81837047DFF82C
:105C20009C130A8C521C0A840A8C042A09D1002273
:105C30000A844A760A7E824206BF888B401C002076
:105C4000888370472DE9F041DFF87063708C042879
:105C50007DD3708C05287AD0DFF864737A7802F0EF
:105C60001F00BD7885EA02043B78718C04292CD191
:105C700004F07F04FF2B6AD1AA2A02BF552DF978C0
:105C8000AA2962D0F978A14261D1510905290BD224
:105C900055B104462946FBF7BDFE02467878410916
:105CA0002046FEF7D5FD50E0052907D12821DFF871
:105CB000142301FB00200121417746E0062944D14D
:105CC00029461046FEF750FA3FE097F80480F9782D
:105CD0004C4088EA040CDFF8F0E2748C062C19D1F1
:105CE000DEF8004044F40044CEF800400CF07F049D
:105CF000FF2B2CD1FF2A2AD0A5F10802D2B25C2AB0
:105D000025D27A79A24222D143460A462946FEF795
:105D10004EFA1AE0708C072814D1DEF8000040F427
:105D20000040CEF80000FF2B11D17B79B87983EACF
:105D30000C0202F07F02904209D142462846FEF74B
:105D400061FA02E0708C082801D300207084BDE85D
:105D5000F08180B50120DFF864124218435C02F83C
:105D6000013C401C1828F8DB087EC8750A7CFF2A15
:105D700004BF4A7CFF2A19D18A7CAA2A04BFCA7CA4
:105D8000552A13D10A7DAA2A04BF4A7D552A0DD16E
:105D90008A7D372A08BFBA2808D101208883DFF816
:105DA0002C02DFF82C120978017007E08A8B3AB9CF
:105DB00040F26571DFF8FC01FEF70BFD012002BD2A
:105DC0008A8B521E0AD040F2AF43D21A0BD0521E19
:105DD0000CD0521E0ED0521E12D02CE0142828D106
:105DE0004FF4966026E0FFF712FF24E00120FFF752
:105DF00016FF20E04A7E50404876888B401C19E010
:105E00004A7E824215D1DFF8CC0101220270887DE2
:105E1000072809D1DFF8C02101231370DFF8BC2166
:105E2000137803F0FB03137000228A83FEF7D0FE81
:105E300001E000208883002002BDF8B5DFF874413E
:105E400040F225512046FEF7C4FC2088DFF86C5153
:105E50002046FEF7B2FC2876287EFF2804BF0021EA
:105E60006984698C4A1C6A84DFF854218854DFF8FD
:105E7000700190F90000012800F09480DFF864615F
:105E800001203070DFF860013178012906D14168C6
:105E900041F400714160FFF7D5FE03E0016841F471
:105EA0000071016040F265773078002877D0FFF705
:105EB00050FF287EFF2803D10120E883002051E015
:105EC000E98B012926D002292CD003293CD00429B2
:105ED00043D0052948D00A2953D00B2950D01E2978
:105EE0004FD01F294CD028294BD0292948D03229FE
:105EF00047D0332944D0342949D08C2941D08D2929
:105F00003ED0DC293DD0DD293AD0E62939D0E72939
:105F100036D044E000F0E001E02906BFE98B491CDF
:105F2000002116E0FB2802D1E98B491C11E000F1A9
:105F30002301C9B2182905D200F12401C9B20A22ED
:105F4000514306E0002104E0012806BFE98B491C0B
:105F50000021E983697E484004E0E98B491CE9831C
:105F600000F021F868761AE0697E884215D1DFF8E2
:105F70006C00017841F001010170002030700CE0EC
:105F8000E87600F010F86876E88B401C06E0697E41
:105F9000884204BFE87EFEF71BFE0020E8833946F6
:105FA000204623E0F1BD697E48406876687E00F0B7
:105FB0007F0070470048004000380140E81E002084
:105FC000301F002014090020140C01401D00002087
:105FD0001E000020180000201500002010000020E6
:105FE000391D002014000020100C0140BDE8F440D1
:105FF000FEF7EFBBF8B503208DF802004FF4806484
:10600000ADF8004048208DF803005D4D00F03EF8EB
:106010004FF4007000F03EF84FF4006600F030F8E6
:10602000584F00A9384600F0DCFCADF800401820BD
:106030008DF8030000A9384600F0D3FC0820ADF825
:106040000000482000F029F8042000F023F800F0B8
:1060500017F84D4D00F01AF8ADF8004000F01CF8AC
:1060600010208DF8030003208DF802004020ADF8C9
:10607000000000F00BF8286940F040002861F1BDF5
:10608000ADF8006048208DF80300704700A928464D
:1060900000F0A7BCADF8000018208DF8030000A99F
:1060A000284600F09EBC30B585B000F01DF8324C9B
:1060B00004E030B585B000F017F8344C00F035F846
:1060C00000A92046FEF70AFB00212046FEF746FB0A
:1060D0002088A08840212046FEF77AFB29462046EA
:1060E000FEF777FB05B030BD009000200190ADF8C1
:1060F0000800ADF80C000C20ADF80A00704730B570
:1061000085B0FFF7F1FF224C00F00FF800A9204600
:10611000FEF7E4FA00212046FEF720FB402120464E
:10612000FEF756FB2088A088D8E740F225550122CB
:1061300029462046FEF71CBB3EB50023FF248DF800
:10614000004000AC60708DF802108DF803200193C0
:106150000120015D4B40401C0828FAD303F07F006A
:1061600020720025295D0548FEF71AFB6D1C092DDC
:10617000F8D337BD0000000000380140004C00405B
:1061800000080140000C01400010014000440040A4
:1061900000480040D0E7000090EA010F44BF81F0C2
:1061A000004100F0A1BA00BF431A4FF000423EBFC9
:1061B0005340C01AC91800BFD3095FEAD05C13EB83
:1061C000400F34BFB3EB410F40E07CEBD1530CD315
:1061D00042EA012122D8D1EB402009D3400A28BF4E
:1061E0005FEA500140EBCC507047401A15D0400296
:1061F000B0FA80F2521C9040400A4FEA3C23B3EBC5
:10620000026384BF00EB730007E040F400001A163D
:10621000DB07C2F10102D04018437047182BFCDCA9
:1062200031FA03F202FA03F3591A38BF42F00102BD
:10623000D2EB40203CBF4000ACF1010C5FEACC5CEB
:10624000C20572F100414CEB5020704713EB400F38
:106250000FD24B0009D0ACEBD153022B03DB490228
:10626000172BDDDD70479143401A4300D5D1002044
:10627000704713EB410FD0D36FF000007047000060
:10628000DFF8DC100A6802F03802FFE70A600A68EB
:1062900010430860704732490A6822F01002F5E79F
:1062A0003048314901603149016070473048016828
:1062B00041F080010160704770B5054640F6FF76F9
:1062C000304600F059F8042813D1294C206840F0DA
:1062D000020020606560206840F040002060304689
:1062E00000F04AF8012804D0216841F6FD721140FF
:1062F000216070BDF8B500F017F8042813D11C4CCC
:10630000206840F00100206000F012F841F6FE77AE
:10631000042803D1300C688000F00BF8012802D06B
:10632000216839402160F2BD05460E460F2023E06A
:106330002E800F2020E00F49086070470D490A6841
:106340000420D20701D5012070470A68520701D501
:10635000022070470968C90648BF03207047000043
:10636000002002400420024023016745AB89EFCDA5
:10637000102002400C20024010B582B00446FFF706
:10638000DDFF08E00098401E009000980028F9D139
:10639000FFF7D4FF641E012804D124B1002000902F
:1063A000FF20F1E704B9052016BD0000103A07D31D
:1063B00030B4B1E83810103AA0E83810F9D230BC47
:1063C000530724BFB1E80810A0E8081044BF51F8F3
:1063D000043B40F8043BD20724BF31F8022B20F8DD
:1063E000022B44BF0B7803707047083A07D3B1E81B
:1063F0000810083A40F8043B40F804CBF7D25307A2
:10640000E4E700006D486E4A016841F00101016057
:106410004168114041606B4A0168114001600168A8
:1064200021F480210160416821F4FE0141600021D6
:106430008160704761490A6822F480320A60B0F5D1
:10644000803F0A6822F480220A6003D0B0F5802FD2
:1064500004D07047086840F4803002E0086840F4D7
:10646000A0200860704710B582B000200090002482
:10647000312000F092F80099491C009118B9009859
:10648000B0F5A06FF4D1312000F087F800B10124FD
:10649000204616BD4C4A136823F47C131843084366
:1064A0001060704749490860704747490A68920878
:1064B00040EA8200086070474348006800F00C0022
:1064C000704741490A6822F0F00203E03E490A6839
:1064D00022F4E0621043086070473B490A6822F4E6
:1064E000605242EAC0000860704730B53649384B08
:1064F0000A6802F00C02082A0ED10A680C68354DB1
:10650000C2F38342921C5543E40302D50C68A403F2
:1065100001D52B4600E0534303600FF2C8020B681D
:106520000468C3F303139B5C24FA03F343600B6812
:106530004468C3F302239B5C24FA03F383600B6873
:106540004468C3F3C2239A5C0FF2A80324FA02F250
:10655000C2600968C268C1F38131C95CB2FBF1F164
:10656000016130BD1C4A0029116814BF084321EAAB
:10657000000010607047194A0029116814BF0843D1
:1065800021EA000010607047154A0029116814BF05
:10659000084321EA0000106070474109074A0129B9
:1065A00008BF116803D002290CBF116A516A00F0BC
:1065B0001F0021FA00F000F00100704700100240B7
:1065C0000000FFF8FFFFF6FE0410024060004242A8
:1065D00000127A0000093D00181002401C10024011
:1065E0000C10024000000000010203040102030439
:1065F00006070809020406085FF0FF0C1CEAD051E8
:1066000014BF614506E0C110400721F0E04101F1EF
:106610006051704779B900F0004100020AD0B0FA29
:1066200080FC00FA0CF001F16051A1EB0C5101EB80
:10663000D0214005704741020CBF40F4E0016FF0EB
:10664000000100207047000083B5012100A800F080
:106650008FFA401E012811D9002100A800F088FA05
:1066600060B101980028DDE9002347BF00200549FB
:106670000020054900F088F8CDE90001DDE90001BE
:1066800003B000BD0000F0BF0000F03FF446400D35
:1066900040EAC120490006D200F00EF8004248BF8F
:1066A0006FF00040604700F007F84FF0004188426B
:1066B0008CBF08464042604740F00040490DA1F5BC
:1066C0008061491C05D4D1F11F0154BFC840C017D7
:1066D00070474FF00000704790EA010F44BF81F00F
:1066E0000041FFF761BD00BF421A3CBF801A891804
:1066F0004FF0004CC0F3C752FF2A24D0C1F3C75358
:1067000013B3D21AD2F1190327DD4CEA01214CFA56
:1067100003F321EA0303D140C20D4CEA00204018E4
:1067200034BF20EA0C004CEA5000D20553EA006363
:1067300073EB0C0C52EB1020420012F1807F38BF3B
:106740007047C00DC0057047490212BF9A4200EB66
:106750005120F8E7D2F11703D9D57047010040F175
:106760000780F446404200F003F851F000416047D2
:1067700009D0B0FA80F18840C91CC1F584610905CF
:1067800001EBD0214005704770B44FF0004591EA0D
:10679000030C44BF6B4000F02BBA00BF841A71EBAE
:1067A000030603D2001BB141121973414FF4001CC0
:1067B0001CEB410F34BF7CEB430443E00C0DA4EB16
:1067C0001356352E50DC45EAC323DB0A45EAC121C6
:1067D000C912B6F120050DDD63FA05F6EB4086EA35
:1067E0000305124218BF45F00105C01851F1000120
:1067F0000CD213E062FA06F5F2405540F3415A40DC
:10680000B340F3405A408018594107D349085FEA22
:1068100030005FEA350528BF45F0010501F580111C
:10682000420875F1004250F1000041EB045170BC88
:106830004FF4001C1CEB410F38BF70470020090DBE
:10684000090570471CEB410F10D252EA43060BD0EA
:10685000BCEB410F05D80C0DAB43661E342EB5DDE5
:1068600002E0AB438018594170BC704770BC704760
:106870004FEAF17CBCF1E04C2CBFBCF5001F11E0ED
:106880005FEA4C0C34BFBCF17F5F2EE05FEA9C0CEA
:106890004FEA0C1C4FEA3C0CC10071F100414CEB7B
:1068A00050707047C90241EA5051C00218BF41F010
:1068B000010141F000414FEA6C50C0F1090021286C
:1068C00010D240EACC7CCCF1200C11FA0CF070F123
:1068D0000040CCF1200C21FA0CF00CF0004C40EB05
:1068E0000C0070474FEACC707047490011F5001F4B
:1068F00004D84FEACC10FF30C0057047C817704766
